:020000040000FA
:10000000F8FB012001010000972F000023310000C0
:10001000873300006B3400005737000000000000F9
:100020000000000000000000000000004F2E000053
:10003000BF310000000000004F2E00004F2E0000D6
:100040004F2E00004F2E00004F2E00005D350000A7
:100050004F2E00004F2E00004F2E00004F2E0000AC
:100060004F2E00004F2E00004F2E00004F2E00009C
:10007000B50F00004F2E00004F2E00004F2E000045
:100080004F2E00004F2E00004F2E00004F2E00007C
:100090004F2E00004F2E0000DD3200004F2E0000DA
:1000A0004F2E00004F2E00004F2E00004F2E00005C
:1000B0004F2E00004F2E00004F2E00004F2E00004C
:1000C0004F2E00004F2E00004F2E00004F2E00003C
:1000D0004F2E00004F2E00004F2E00004F2E00002C
:1000E000F8B500BFF8BC08BC9E467047FD2E000066
:1000F000F8B500BFF8BC08BC9E467047D92E00007A
:1001000008B5194B9847194B9847EFF3108172B611
:10011000174AD2F8883043F47003C2F88830BFF32E
:100120004F8FBFF36F8F01B962B6124A936823F005
:10013000010393601346DA6812F0010FFBD10D4BF7
:1001400024225A6001229A6002F0DCF80A4B23F064
:100150007F03074A9360094B9847094B9847094B1F
:10016000984703F027FBFEE709350000D72B000076
:1001700000ED00E00020004100000000CD2A00005A
:10018000D72B0000D72B000053454350313132525A
:100190003100000044423743324142463632453353
:1001A00035453636383037364245414432303842AC
:1001B0000000000044423743324142463632453364
:1001C0003545363638303736424541443230383896
:1001D0000000000036353945463842413034333965
:1001E0003136454544453839313137303242323283
:1001F0000000000044423743324142463632453324
:100200003545373632384446414336353631433545
:100210000000000039343837323339393935413547
:100220004545373642353546394332463039380050
:10023000413839434535414638373234433041320D
:100240003345304530464637373530300000000002
:10025000534543503132385231000000464646463D
:100260004646464446464646464646464646464630
:100270004646464646464646464646460000000036
:100280004646464646464644464646464646464610
:100290004646464646464646464646464646464301
:1002A00000000000453837353739433131303739B0
:1002B0004634334444383234393933433243454584
:1002C000354544330000000046464646464646450E
:1002D00030303030303030303735413330443142D7
:1002E0003930333841313135000000003136314684
:1002F0004637353238423839394232443043323861
:10030000363037434135324335423836000000003D
:10031000434635414338333935424146454231330E
:100320004330324441323932444445443741383312
:100330000000000053454350313630523100000078
:10034000464646464646464646464646464646464D
:10035000464646464646464646464646464646463D
:100360003746464646464646000000004646464654
:10037000464646464646464646464646464646461D
:10038000464646464646464646464646374646461C
:100390004646464300000000314339374245464354
:1003A0003534424437413842363541434638394680
:1003B000383144344434414443353635464134358C
:1003C00000000000313030303030303030303030EC
:1003D00030303030303030303146344338463932C6
:1003E0003741454433434137353232353700000019
:1003F0003441393642353638384546353733323868
:10040000343636343639383936384333384242395F
:100410003133434246433832000000003233413624
:100420003238353533313638393437443539444349
:100430004339313230343233353133373741433554
:1004400046423332000000005345435031393252A6
:100450003100000046464646464646464646464623
:10046000464646464646464646464646464646462C
:10047000464646454646464646464646464646461D
:100480004646464600000000464646464646464624
:1004900046464646464646464646464646464646FC
:1004A00046464646464646454646464646464646ED
:1004B0004646464646464643000000003634323142
:1004C0003035313945353943383045373046413795
:1004D0004539414237323234333034394645423877
:1004E000444545434331343642394231000000002F
:1004F000464646464646464646464646464646469C
:1005000046464646464646463939444546383336D9
:100510003134364243394231423444323238333155
:100520000000000031383844413830454230333023
:100530003930463637434246323045423433413112
:1005400038383030463446463041464438324646E4
:10055000313031320000000037313932423935460E
:1005600046433844413738363331303131454436EB
:1005700042323443444435373346393737413131D9
:1005800045373934383131005345435032323452D3
:1005900031000000464646464646464646464646E2
:1005A00046464646464646464646464646464646EB
:1005B00046464646303030303030303030303030E3
:1005C00030303030303030303030303100000000EA
:1005D00046464646464646464646464646464646BB
:1005E00046464646464646464646464646464645AC
:1005F000464646464646464646464646464646469B
:1006000046464646464646450000000042343035E0
:10061000304138353043303442334142463534314D
:10062000333235363530343442304237443742463F
:10063000443842413237304233393433323335353E
:100640004646423400000000464646464646464678
:10065000464646464646464646464646464646463A
:1006600046464646313641324530423846303345BB
:1006700031334444323934353543354332413344E0
:100680000000000042373045304342443642423495
:1006900042463746333231333930423934413033D0
:1006A00043314433353643323131323233343332ED
:1006B00038304436313135433144323100000000A6
:1006C0004244333736333838423546373233464280
:1006D000344332324446453643443433373541306F
:1006E000354130373437363434344435383139399C
:1006F0003835303037453334000000005052494D12
:10070000453233395631000037464646464646465E
:100710004646464646464646464646464646464679
:1007200037464646464646464646464638303030C8
:100730003030303030303030374646464646464618
:100740004646464600000000374646464646464670
:100750004646464646464646464646464646464639
:100760003746464646464646464646463830303088
:1007700030303030303030303746464646464646D8
:10078000464646430000000036423031364333428D
:1007900044434631383934314430443635343932C3
:1007A00031343735434137314139444232464232A0
:1007B00037443144333737393631383543323934B9
:1007C0003243304100000000374646464646464622
:1007D00046464646464646464646464646464646B9
:1007E000374646464646394535453941394635440A
:1007F0003930373146424431353232363838393083
:100800003944304200000000304646413936334317
:100810004443413838313643434333334238363426
:100820003242454446393035433344333538353721
:1008300033443346323746424244334233434239EB
:1008400041414146000000003744454245384534A7
:1008500045393041354441453645343035344341DE
:10086000353330424130343635344233363831381E
:1008700043453232364233394643434237423032BF
:100880004631414500000000534543503235365251
:100890003100000046464646464646463030303037
:1008A0003030303130303030303030303030303047
:1008B00030303030303030303030303046464646E0
:1008C00046464646464646464646464646464646C8
:1008D00046464646000000004646464646464646D0
:1008E0003030303030303031303030303030303007
:1008F00030303030303030303030303030303030F8
:100900004646464646464646464646464646464687
:1009100046464646464646430000000035414336BB
:100920003335443841413341393345374233454209
:100930004244353537363938383642433635314416
:1009400030364230434335334230463633424345F6
:1009500033433345323744323630344200000000EE
:1009600046464646464646463030303030303030D7
:100970004646464646464646464646464646464617
:100980004243453646414144413731373945383491
:1009900046334239434143324643363332353531AB
:1009A000000000003642313744314632453132438F
:1009B0003432343746384243453645353633413490
:1009C0003430463237373033374438313244454299
:1009D0003333413046344131333934354438393892
:1009E0004332393600000000344645333432453254
:1009F000464531413746394238454537454234410D
:100A00003743304639453136324243453333353743
:100A10003642333135454345434242363430363829
:100A200033374246353146350000000053454350C8
:100A30003338345231000000464646464646464664
:100A40004646464646464646464646464646464646
:100A50004646464646464646464646464646464636
:100A60004646464646464646464646464646464626
:100A70004646464646464645464646464646464617
:100A80003030303030303030303030303030303066
:100A9000464646464646464600000000464646460E
:100AA00046464646464646464646464646464646E6
:100AB00046464646464646464646464646464646D6
:100AC00046464646464646464646464646464646C6
:100AD00046464646464646464646464546464646B7
:100AE00046464646303030303030303030303030AE
:100AF0003030303046464646464646430000000009
:100B00004233333132464137453233454537453438
:100B10003938384530353642453346383244313934
:100B20003138314439433645464538313431313234
:100B30003033313430383846353031333837354159
:100B400043363536333938443841324544313944F7
:100B500032413835433845444433454332414546B4
:100B6000000000004646464646464646464646463D
:100B70004646464646464646464646464646464615
:100B80004646464646464646464646464646464605
:100B90004646464643373633344438314634333795
:100BA00032444446353831413044423234384230A0
:100BB0004137374145434543313936414343433556
:100BC0003239373300000000414138374341323277
:100BD0004245384230353337384542314337314565
:100BE000463332304144373436453144334236326D
:100BF0003842413739423938353946373431453052
:100C00003832353432413338353530324632354476
:100C1000424635353239364333413534354533383C
:100C20003732373630414237000000003336313733
:100C300044453441393632363243364635443945F7
:100C400039384246393239324443323946384634EB
:100C500031444244323839413134374345394441D3
:100C6000333131334235463042384330304136300B
:100C700042314345314437453831394437413433C3
:100C80003144374339304541304535460000000096
:100C9000534543503532315231000000314646460B
:100CA00046464646464646464646464646464646E4
:100CB00046464646464646464646464646464646D4
:100CC00046464646464646464646464646464646C4
:100CD00046464646464646464646464646464646B4
:100CE00046464646464646464646464646464646A4
:100CF0004646464646464646464646464646464694
:100D00004646464646464646464646464646464683
:100D100046464646464646464646464646464600B9
:100D20003146464646464646464646464646464678
:100D30004646464646464646464646464646464653
:100D40004646464646464646464646464646464643
:100D50004646464646464646464646464646464633
:100D60004646464646464646464646464646464623
:100D70004646464646464646464646464646464613
:100D80004646464646464646464646464646464603
:100D900046464646464646464646464646464646F3
:100DA00046464300353139353345423936313845C9
:100DB000314339413146393239413231413042369D
:100DC000383534304545413244413732354239397E
:100DD0004233313546334238423438393931384577
:100DE000463130394531353631393339353145437E
:100DF0003745393337423136353243304244334256
:100E0000423142463037333537334446383833443D
:100E10003243333446314546343531464434364224
:100E20003530334630300000314646464646464669
:100E30004646464646464646464646464646464652
:100E40004646464646464646464646464646464642
:100E50004646464646464646464646464646464632
:100E60004646464646464646464641353138363879
:100E700037383342463246393636423746434330B6
:100E800031343846373039413544303342423543C6
:100E9000394238383939433437414542423646427F
:100EA0003731453931333836343039004336383507
:100EB000384530364237303430344539434439458B
:100EC000334543423636323339354234343239438E
:100ED000363438313339303533464235323146389D
:100EE000323841463630364234443344424141314F
:100EF000344235453737454645373539323846452A
:100F00003144433132374132464641384445333328
:100F10003438423343313835364134323942463938
:100F20003745374533314332453542443636000084
:100F30003131383339323936413738394133424328
:100F4000303034354338413546423432433744310A
:100F500042443939384635343434393537394234F6
:100F600034363831374146424431373237334536EB
:100F700036324339374545373239393545463432CB
:100F800036343043353530423930313346414430E0
:100F900037363133353343373038364132373243E1
:100FA00032343038384245393437363946443136B0
:100FB00036353000704B9B7D002B00F0DC80F0B5A7
:100FC00083B06D4A137EDBB2927D12F0800F11D197
:100FD000694A137EDBB2927D12F0010F00F0BC80F3
:100FE00013F0010F00F0B880644C634D644E20692B
:100FF000217D34E013F0800FEAD05F4B5B8B13F060
:101000000703E5D05D4AD3875B4B80221A7607221F
:101010005A831B7E13F0040F05D0574B9A6A1A7E31
:1010200012F0040FFAD1554B1B6A002BD0D0534A53
:10103000516A02209847CBE7F25C8DF80620013315
:10104000984298BF0023E3606B6803F00703012B0D
:1010500014BF9DF80630BDF80630AB62B9B92B7EDF
:1010600013F0010F78D0A268E3689A4271D06A68E1
:1010700002F00702012ADFD116F813208DF80620AE
:1010800006EB430252788DF807200133D8E702F0CF
:10109000EFFA2368002BAAD0227F32B1A2699042D6
:1010A000A5D3616803209847A1E7A26990429ED129
:1010B0006168032098479AE7226A002A37D0616A5C
:1010C00038469047A36A0133226B934228BF00231E
:1010D0002DE0A16A2B4A02F8115002EB4102C5F340
:1010E000072555702EE002F051FA236A002B2ED00E
:1010F00094F83C2032B1A26B904228D3616A002060
:10110000984724E0A26B904221D1616A0020984761
:101110001DE0337E13F0040F2BD0B56AA36A0133B0
:10112000226B934228BF0023E26A9A42C4D0E26A4B
:101130009A42EED0726802F00702012AC9D0A26A70
:1011400010498D54A36294F83430002BCBD1012781
:10115000DFE7094B01221A75074A137EDBB2927D45
:1011600012F0040F05D013F0040F02D0024E034C0E
:10117000EDE703B0F0BD7047000C004090FF012088
:10118000A0330020A01F0020905A00201C00000067
:1011900000000000BDFE0120010000000000000072
:1011A000C45A002014000000000000007CFF012051
:1011B0000400000000000000A04700201010000004
:1011C00000000000AC5A00201800000000000000E1
:1011D000B0570020000200000000000000000020C6
:1011E000A01F000000000000F0FF0120040000002C
:1011F0000100000000100000BEFE012002000000FF
:1012000000000000F4FF01200400000000000000C6
:10121000F8FF01200400000000000000A01F0020D3
:101220000014000000000000A033002000140000A3
:101230000000000090FF01204000000000000000BE
:1012400074FF01200800000000000000505A002038
:101250004000000000000000B0590020A000000085
:1012600000000000D0FF012020000000010000006D
:10127000064A136823F49F7323F0010343F011031C
:101280001360092300BF013BFCD1704700240144D7
:10129000FCFF0120040000000000000088FE012087
:1012A0003000000000000000BCFE01200100000032
:1012B00000000000B8FE0120040000000000000053
:1012C000C0FE0120400000000000000000FF0120DF
:1012D000200000000000000080FF0120100000003E
:1012E0000000000000FC01202802000000000000B7
:1012F00028FE01206000000000000000E05A0020ED
:10130000010000000000000020FF0120010000009B
:1013100000000000D85A0020040000000000000077
:1013200024FF01205000000000000000DC5A0020D3
:1013300004000000000000000000000000000000A9
:101340002222222222222222536C6F74302000009B
:10135000536C6F7431200000C2818FBB2861478BB2
:10136000A2533779D463187C8B4159A95F0B6B94D6
:101370004EB957A103FE20BF2BB8142A64B5AE4A5C
:101380008380DDE6EE2989DDA09AC7DA82EB56621A
:10139000905D66C5BC303C844D68656164657220B3
:1013A000736861323536204661696C6564210D0AC7
:1013B000000000004D6865616465722073686132E9
:1013C0003536205665726966696564210D0A00002C
:1013D0004D6574616865616465722045434453419D
:1013E000205665726966696564210D0A0000000077
:1013F0004D6574616865616465722045434453417D
:10140000204661696C6564210D0A0000465720730F
:101410006861323536204661696C6564210D0A00C9
:1014200046572073686132353620566572696669A1
:101430006564210D0A00000046572045434453418E
:10144000205665726966696564210D0A0000000016
:101450004657204543445341204661696C656421E9
:101460000D0A0000536C6F7431204572617365641E
:101470000D0A0000536C6F7430204572617365640F
:101480000D0A0000536C6F743120436F70696564FE
:1014900020746F20536C6F74300D0A00436F7079A5
:1014A0002056657269666965640D0A00436F70793C
:1014B000204469666665720D0A000000496E766117
:1014C0006C696420536C6F743120496D6167650DE0
:1014D0000A000000496E76616C696420536C6F7479
:1014E0003020496D6167650D0A00000044465520B3
:1014F0004E6F77210D0A00002DE9F84305460C4692
:10150000174602F0DDF8102F14D0B846BB1E3E2B54
:1015100000F29D8023782D2B64D04FF000092078B5
:10152000002877D12B68002B00F08680C5F8049046
:10153000002381E023782D2B06BF013401260026ED
:10154000204602F021F9012800F18C80204400217E
:101550000A461CE0A7F16103DBB2052B71D8A7F1A5
:101560005703DBB2202A08BF013102F01F0287298E
:101570006ADC05EB810E9340DEF808703B43CEF841
:10158000083004320238031B6046002B11DB00F1E7
:10159000FF3C10F8017CA7F13003DBB2092BE1D945
:1015A000A7F14103DBB2052BD4D8A7F13703DBB297
:1015B000D8E701312960002951D04A1E4B1C55F84B
:1015C000233063B9013105EB810300E00246002AB4
:1015D00043D0501E53F8041D0029F7D02A606E60D6
:1015E000002329E001344FF0010998E7B74231DDCB
:1015F0002A464146284600F0C9F90346E0B92A4682
:101600003146284601F095FE0346A8B914F8010FAB
:10161000002887D0242F02DC02F0D3F8C0B2302893
:101620000DD0124B012613F8012F8242DED0013675
:10163000402EF8D14FF0FF331846BDE8F88300265E
:10164000D6E74FF0FF33F7E74FF0FF33F4E74FF003
:10165000FF33F1E74FF0FF33EEE700232B60002369
:101660006B60E9E701212960A7E700BF942E000025
:101670002DE9F04F83B007468B469046D0E91E23F4
:1016800012EB080043F10001C7E91E0112F03F0907
:1016900028D0C9F14005454501D9002423E007F1D0
:1016A00018042A46594604EB090001F0C2FFDFF88E
:1016B000CCC007F1580E664620686168A268E368EE
:1016C0000FC61034B4467445F5D140222B49384634
:1016D00000F0E8FB0446AB44A8F14008C8444FF0D2
:1016E000000900E00024B8F13F0F2BD91BF03F0F99
:1016F0002FD00BF14006A8F140039A0901920BF19B
:10170000800A23F03F039A44A6F14004DFF86CC03E
:10171000B646654620686168A268E3680FC5103464
:10172000AC467445F5D140221449384600F0BAFB66
:1017300040365645E8D10446019B01330BEB831B31
:1017400008F03F08B8F1000F0FD1204603B0BDE804
:10175000F08F28F03F052A465946384600F0A2FB94
:101760000446AB4408F03F08ECE707F11800424696
:101770005946484401F05DFFE7E700BFC0FE012085
:10178000F0B5BDB0064630A801F0D4FF309B002B69
:1017900071D09A6ADC6A42F0847727409968B14236
:1017A0000BD29B69DB6801213846984700B1FEE700
:1017B0000E21324801F098FF5DE042F08072144043
:1017C0001988B6FBF1F295B201FB12620AB101353C
:1017D000ADB29B6933B1DB6823B1294620469847F7
:1017E00000B1FEE70E21264801F07EFF309B9B6989
:1017F00043B15B6833B1324621464FF0847098475D
:1018000000B1FEE717211F4801F06EFF684601F0A6
:10181000CAFF32464FF080716846FFF729FF28A9BA
:10182000684600F047FC684601F0BDFF32464FF0C5
:1018300084716846FFF71CFF20A9684600F03AFC57
:10184000202220A928A801F07BFE80B90F210E4894
:1018500001F04AFF309B9B69DB6829463846984770
:1018600000B1FEE70E21054801F03EFF03E00D2127
:10187000064801F039FF3DB0F0BD00BF6414000020
:1018800074140000841400009C140000AC140000C8
:1018900038B54FF088431C6A4FF0847001F02EFF7A
:1018A00030B10546B0F1FF3F49D02846FFF768FF49
:1018B0004FF0807001F022FF013810F1030F43D880
:1018C0002A4B013BFDD101F0ADFD01F0D9FB274BC7
:1018D000013BFDD172B6264B4FF0FF32C3F880209A
:1018E000C3F88420C3F88820C3F88C20C3F8902064
:1018F000C3F89420C3F89820C3F89C20C3F8802133
:10190000C3F88421C3F88821C3F88C21C3F890213F
:10191000C3F89421C3F89821C3F89C2162B6002330
:1019200083F31488BFF36F8F124B1B6883F308880F
:10193000114B01221A70114B1B68984738BD1521B5
:101940000F4801F0D1FEB0E715210E4801F0CCFEA2
:10195000064B013BFDD104F400040B4945F24372F0
:1019600000E00A80002CFCD1FEE700BFFFFF05006D
:1019700000E100E00002000120FF0120040200015C
:10198000BC140000D4140000020500442DE9F04FFF
:10199000D2F80080D0F800B0C2F800B0D0F804A0AF
:1019A000C2F804A00368002B5DDD00F1040C131DD8
:1019B0004FF0000E00240025F14600E0B6465CF82A
:1019C000046FE1FB06452F4643F8044F3C464D4665
:1019D0000EF101060768B742F0DC54EA05030AD0AD
:1019E000882F08D00BF1010313600BF1020B42F8B2
:1019F0002B400EF10206B0450FDD872E0FDCB31C25
:101A000002EB8303002143F8041B0136B04507D0E5
:101A1000882EF8D14FF0FF3023E0B04600E0B0460A
:101A2000B8F1880F13D01168B1B14B1E481C52F8A1
:101A3000200098B9013102EB810100E023464BB14F
:101A40005C1E51F8040D0028F8D0136006E04FF03A
:101A5000FF3006E0002313604FF0000AC2F804A034
:101A60000020BDE8F08FB8F1000FD8BF4FF000089C
:101A7000D6DD0026C3E77047F8B5344C656B636864
:101A80009B6998476061606901F0B0FDD4E90A671D
:101A9000321847F10003C4E90A23002D4CD094F812
:101AA0003030013384F8303001F0BAFB646B2CB174
:101AB000A3681BB901250027244E11E0244D002402
:101AC0002E4627461FE0E06901F084FAE3680BB177
:101AD00020699847746B002CF0D0A368002BEDD1DF
:101AE00025756575A37813B9E368002BEBD1204603
:101AF00000F090FFA378002BE8D16770E6E701348F
:101B00002035052C12D006EB44135B7D002BF6D05C
:101B100006EB44135F75AB78012BF0D16B6806EBD5
:101B200044129360284600F061FBE8E7074A92F808
:101B30003030013B82F8303001F090FE044600F076
:101B40000DFA204601F08EFEF8BD00BF505A00206D
:101B5000B05900202DE9F04F83B00C680368A34210
:101B6000B8BF23461468882CA8BF8824A6461360F3
:101B7000002B46DD0430043102F104084FF0000A66
:101B80004FF0000B4FF0000C50F8049F51F8044F39
:101B9000002514EB090645F10007CDE9006716EBB7
:101BA0000A06019C44EB0B0448F8046F4FF0000B4D
:101BB000A2460CF1010C6345E6D15AEA0B0007D0AE
:101BC000872B05DC581C1060023342F82340034683
:101BD000882B26D013609E4509DD981C02EB8000FF
:101BE0001946002440F8044B01318E45FAD1EBB17F
:101BF000591E581C52F8200068B9013302EB8303C8
:101C000002E00023E6E7214671B14C1E53F8040DB3
:101C10000028F8D0116053685360002003B0BDE87D
:101C2000F08F4FF0FF30F9E7002313600023F3E754
:101C30002DE9F04F80469246D2F800900C6800687B
:101C40001060002C49DD08F1040E043102F1040C8F
:101C500000231A461D465EF804BFBBEB030662EB89
:101C6000420751F804BFB6EB0B0267F100034CF8D2
:101C7000042F03F0010300220135AC42EBD1D8F868
:101C80000010A14214DDA51CAD0008EB050655446B
:101C9000002756F8041BC91A62EB420245F8041BE0
:101CA00002F001033A460134D8F80010A142F0DCFA
:101CB000A14508DDA31C0AEB8303002243F8042B93
:101CC0000134A145FAD1D8B1431E421C5AF8222052
:101CD00082B901300AEB800004E000231A461C465A
:101CE000CDE70B464BB1591E50F8042D002AF8D011
:101CF000CAF80030DAF8043003E00023CAF80030F4
:101D00000023CAF80430BDE8F08F70472DE9F04792
:101D100000295ED00F46304B1E6900242F4D1A4615
:101D200000F1010EDFF8B8C0A04615E010F804A0DD
:101D3000D5F8049009F00709B9F1010F11BF0CF8AB
:101D400001A00CF811A00CEB410181F80180936017
:101D5000631C01349F423AD96B6803F00703012BDF
:101D600011D09168D2F80C904B1CB34228BF0023CD
:101D70009945DBD101F0FEFB10B1184B01229A7599
:101D80002046BDE8F0879168D2F80C904B1CB34216
:101D900028BF00239945EDD01EF814A010F8149028
:101DA00049EA0A29D5F804A00AF0070ABAF1010F96
:101DB00004D00CF801909360631CCAE70CF81190F2
:101DC0000CEB41014FEA192981F80190F3E71C4619
:101DD000D0E70C46CEE700BF90FF0120000C00408A
:101DE000A0330020F8B5002855D00546002955D06D
:101DF0000C68236883421CBF002384F824302060D1
:101E000094F8243022EA03061A4384F8242016F0BA
:101E1000010F0FD1002716F0020F13D116F0080F93
:101E200019D116F0100F1FD116F0200F24D167BB67
:101E30003846F8BD01232246211DC06800F048FF46
:101E40000746E8E70223224604F10801286900F06A
:101E50003FFF0744E2E70823224604F10C01A8698A
:101E600000F036FF0744DCE710232246E118E8695A
:101E700000F02EFF0744D7E72023224604F1140187
:101E8000286A00F025FF0744D1E7204600F0C6FC91
:101E90006FF06E07CCE76FF0AC07C9E76FF0AC07E7
:101EA000C6E770472DE9F843054688469146284C19
:101EB0000423636081609309013B0361254F03465E
:101EC0003E4653F8080F59689A68DB680FC6102120
:101ED000384600F08AF94946404600F086F9BFF3DB
:101EE0005F8F276343F2040323601B4B6363AB6D77
:101EF000A363EB6DE3632B6E23646B6E6364AB6E65
:101F0000A364EB6EE3642B6F23656B6F6365012342
:101F1000236163602246D36913F00F0FFBD00C4B93
:101F200002225A6004225A600B4C20212046FFF7FF
:101F3000B8FFBFF35F8F0FCCA865E9652A666B66B3
:101F40000FCCA866E9662A676B670020BDE8F883B6
:101F5000002C004280FF012000FF01202DE9F84302
:101F60002A4B5A6B59691961002A40D09368B3F51E
:101F7000004F33D3254B5B6947F6FF74002514EB04
:101F8000030845F10009214E73689B69984782B2A6
:101F900000233169814206D94FF6FF7152184FF084
:101FA000000141EB03031949096A561843F1000780
:101FB000B94508BFB04524D20A44144BDA61134B2B
:101FC000DB699BB213B9114B0122DA610F4BD8695F
:101FD0005B685B6980B29847BDE8F88394680B4BF7
:101FE0005B69002514EB030845F10009CBE7074BBB
:101FF0005B6947F6FF74002514EB030845F10009FF
:10200000C1E7024BC3F81C80D9E700BF505A00203B
:10201000002941D038B50D46002840D1214C01237C
:1020200084F838300B686360DB689847E0601E4BCB
:10203000B3FBF0F3BC2090FBF3F00230206295F983
:1020400004302372002121614FF6FF73A36147F62C
:10205000FF73E36100220023C4E90A23616384F86B
:10206000301063681B681148984763681B690BB19F
:10207000208B98470B4CE06963685B6980B2984796
:1020800063685B689847A0220021094801F074FB4F
:1020900002232370204638BD4FF0FF3070474FF0C9
:1020A000FF30F8E7505A00200090D003791A000062
:1020B000B059002070B582B005460C46826FC36FE0
:1020C000DB0043EA5273D100180E8DF80000180CA3
:1020D0008DF80100180A8DF802008DF803300B0E00
:1020E0008DF804300B0C8DF805300B0A8DF8063096
:1020F0008DF8071002F03F02372A94BFC2F1380270
:10210000C2F17802D2B211492846FFF7B1FA08228B
:1021100069462846FFF7ACFA2B4653F8586F5868C3
:102120009968DA6826606060A160E2601E6958699B
:102130009969DA6926616061A161E2610022114654
:10214000284600F057FA02B070BD00BF0C24000012
:102150002DE9F041ADF6F82D06460F461446984697
:1021600002AD019528220021284601F005FB0CABA9
:10217000AB610523EB6194B3A6B30023A360424691
:102180003946204600F014FB0546E0B9D4F8B838CB
:1021900013F1020F0AD0434622463946304600F07A
:1021A00072FB05466FF4877398420CD104F5D26632
:1021B000304601F031FB054650B1304601F082FB5C
:1021C000019800F02BFB28460DF6F82DBDE8F081B4
:1021D0003B2201A92069FFF705FE0546EDE76FF0F8
:1021E000AC05F0E76FF0AC05EDE7704730B32DE9D3
:1021F000F0418646204B5A6BD0F80880C2B19368F4
:102200004046002198451BD3002400259368E4181C
:1022100045F100059369DBB1D3F808C014EB0C0657
:1022200045F10007B94208BFB04211D31A46EDE7A5
:10223000C0F80880104B586301201AE00020704756
:102240000D4BC3F834E0CEF818200024012004E040
:10225000CEF81830C2F818E00020A8EB0404CEF83D
:102260000840DEF8183023B1DEF808109A68521AD8
:102270009A60BDE8F08100BF505A002038B51A4B73
:1022800093F9000000B138BD184C302200212046DF
:1022900001F072FA164D2C605B2323704CF201039F
:1022A00023812046134B98472A681389002BFDD1C0
:1022B0001169114B994206D00B4BFF221A700A4B41
:1022C00093F90000DFE791690C4B994203D0064B6C
:1022D000FE221A70F3E7D269094B9A42024B14BFEF
:1022E000FD2201221A70EAE7BCFE012088FE0120CF
:1022F000B8FE01205500000200010704D2DD706E17
:102300004FD6C8251E4B1F4A9342F0B438BF002158
:1023100003D203F8011B9342FBD11B4AD2E900010F
:1023200050EA01034FF0000610D09468034602F112
:102330000C076CB921B1014403F8016B9942FBD140
:102340003A46D2E9000150EA0103EED1F0BC7047F1
:1023500059B101F10C030C38801A1A443B461C1881
:1023600013F8015B25709342F9D111F0030318BFF4
:10237000012303EB910107EB81073A46E1E700BF38
:102380000000002000000020881100001C4B1D4AA6
:102390001A604FF6A0029A814FF440325A601A46F2
:1023A000D369002BFCD1164A136843F00203136073
:1023B000D369002BFCD1144B00221A629A62DA62B4
:1023C00083F8342083F83C209A63DA871A609A6095
:1023D000DA601A751A779A61094B5B6803F0070394
:1023E000012B094B14BF4FF4A0524FF420621A6323
:1023F0001A61034B80229A7504229A75704700BFB8
:10240000000C00400401124090FF012080000000F9
:1024100000000000000000000000000000000000BC
:1024200000000000000000000000000000000000AC
:10243000000000000000000000000000000000009C
:10244000000000000000000000000000000000008C
:10245000000000000000000000000000000000007C
:10246000000000000000000000000000000000006C
:10247000000000000000000000000000000000005C
:10248000000000000000000000000000F0B51B4A42
:10249000D36A956A61B30E46AB422CD0D2F830C0F5
:1024A0000122174FA0F1020E164C01380BE0E15C3F
:1024B000815401339C4598BF0023B24213D2511C72
:1024C000AB4211D00A46796801F007010129EED12B
:1024D00014F813100EF8121004EB4301497800F8B9
:1024E00012100133E6E71D46044BDD621046F0BDD5
:1024F0001D460A46F8E70022F6E700BF90FF0120DC
:10250000000C0040A01F0020F0B40C6800251560EE
:10251000661C9E4229D80519005D10F0800F0BD172
:102520003746049C14B1C4199C4227D80F60002878
:1025300000DD1060F0BC704700F07F0037189F424C
:1025400016D8042817D868B12C460544002014F882
:10255000016F46EA0020AC42F9D10028E1DA6FF0C1
:102560008B00E7E737460020E0E76FF08300E1E704
:102570006FF08300DEE76FF08B00DBE76FF0830026
:10258000D8E72DE9F04395B01D9D55B31E46914601
:1025900088460746D5F8B80800F05AFE044618B336
:1025A000436823B32C22002109A801F0E5F8032396
:1025B0000193052302930397CDF81080CDF8149072
:1025C00006961C9B079308956368A26801A920687A
:1025D000984710F1AE0F08BF6FF4877015B0BDE8D3
:1025E000F0836FF48770F9E76FF48770F6E76FF4A4
:1025F0008770F3E710B504465822002101F0BCF8BB
:10260000042323734FF00003012262F30613637364
:102610000D4BA36503F1EE5303F5052303F6516358
:10262000E3650A4B23660A4B63660A4BA3660A4BB3
:10263000E3660A4B23670A4B636700220023C4E961
:102640001E23002010BD00BF6A09E6673C6EF372CE
:10265000A54FF53A510E527F9B05688C1F83D9AB6D
:102660005BE0CD19F0B583B005460C4616461F4613
:102670000023019300930B466A4601A900F0C2FFB4
:1026800000281EDB019B009A1344A3421CD1234661
:1026900001AA2946304600F073FA002817DB2346CA
:1026A00001AA2946384600F06BFA0028A8BF00208E
:1026B00001DB03B0F0BD304601F0BAF86FF0AA00BC
:1026C000F7E76FF0AA00F4E76FF0AA00F1E76FF008
:1026D000AA00EEE770B505460C46164600F0F0FF7E
:1026E000B6F5087F04DDA6F508734FF408761C44A0
:1026F000F31C9B082B60002E09DD06F108032B4418
:10270000A21914F8011B03F8011D9442F9D12A689B
:10271000B2B1531E511C55F8211059B9013205EBC5
:10272000820200E003464BB1581E52F8041D0029F6
:10273000F8D02B606B686B60002070BD00232B60AD
:102740000023F8E770B582B006460D461446012214
:102750000192009323460A46022100F0E5F9002881
:1027600020DB2368012B1CDD2B68F25CFF2A0FD0D5
:10277000E2B901332B602368013B2360002B13DD9A
:102780002B68F356002BB4BF00206FF08B0009E0DC
:102790001E4496F90130002BB4BF6FF08B0000206F
:1027A00000E0002002B070BD0020FBE70020F9E748
:1027B00000290CDD422927DC4368B3F1FF3F26D016
:1027C00070B4002343600361134C0E250AE0002A15
:1027D000F2DA6FF0AC007047A94208DD013354F81B
:1027E000345F75B1002AF7DD66689642F6D185B18F
:1027F0004360094A342101FB03230361002070BCBC
:1028000070476FF0AB00FAE76FF0A9007047002047
:1028100070476FF0AB00F2E7B05A000090B310B50C
:10282000044690F8243013F0010F17D194F82430A7
:1028300013F0020F16D194F8243013F0080F15D1BD
:1028400094F8243013F0100F14D194F8243013F0BE
:10285000200F13D1002384F8243010BD406800F00D
:10286000E7FFE3E7A06800F0E3FFE4E7E06800F0DB
:10287000DFFFE5E7206900F0DBFFE6E7606900F0D5
:10288000D7FFE7E770474AB32DE9F04194B014460B
:1028900098460F460646D2F8B80800F0D9FC05461F
:1028A000F8B1436803B33422002107A800F064FFA5
:1028B0000323019309230293039604970594CDF80B
:1028C00018806B68AA6801A92868984710F1AE0FB4
:1028D00008BF6FF4877014B0BDE8F0816FF48770A3
:1028E00070476FF48770F6E76FF48770F3E702685C
:1028F0000B689A4220DC21DB531E22D430B49C1C8E
:1029000050F8245051F82440A5421CD81DD3920001
:10291000043210441144013BB3F1FF3F09D050F899
:10292000044D51F8042D944212D8F4D24FF0FF30E8
:1029300000E0002030BC7047012070474FF0FF30AE
:102940007047002070470120F4E74FF0FF30F1E7B7
:102950000120EFE7154BDA6822F4E0621204120C52
:1029600042F0BF6242F40032DA60BFF35F8F62B6BA
:102970000F4AE02182F803130820106082F80C133C
:102980004FF48050106082F816134FF480011160EC
:102990005A6A42F480225A625A6942F010025A611D
:1029A0005A6A42F400325A62704700BF00ED00E0FC
:1029B00000E100E070B54FF088431C6A1149102215
:1029C0004A609A6942F400329A610B6A13F0100F60
:1029D00002D0FEF75DFFFEE70A210B4800F084FEFF
:1029E0000A4B013BFDD100F041FD04F40004084E08
:1029F00045F2437500E0358000F077FD002CFBD0F8
:102A0000F9E700BF00230044EC140000FFFF0200C0
:102A100002050044154B5A6B1AB310B401468242AA
:102A200004D18369ABB1002206E01A469369D3B1A1
:102A30009942FAD18B6923B18C68986820449860D8
:102A40004AB18B699361002000238B615DF8044BD0
:102A500070471A46F4E7054B5A6B92695A63012096
:102A6000F2E7002070470020F0E700BF505A002036
:102A700008B5124B984703F01FF9114A136823F465
:102A80009F7323F0010343F011031360FFF73DF937
:102A9000FEF7F1FFFFF77AFC00F03EFA00F0DEFDF2
:102AA00008490020FFF7B4FA074B186000F0FEFD5C
:102AB00000F0B8FEFFF74EFF08BD00BFD1FF0120B8
:102AC000002401446C380000FCFF01200E4A38B598
:102AD000002313600D4A0E4C13600E4A0E4D136016
:102AE0000E4A13600E4A13600E4A536213610123AB
:102AF000936000F0F3FE00F0F1FEAC4200D338BD6D
:102B000054F8043B9847F8E7DC5A002030FF0120D6
:102B1000EC0000002CFF0120F000000024FF012049
:102B200028FF012034FF0120F0B587B006460D468E
:102B300014461F46136805930C9B0DF1130205A95B
:102B400000F0BAFA98B99DF81330AB4212D10D9B40
:102B500000930C9B03AA05A93046FFF7D5FC00287B
:102B60000BDB03983860059B236007B0F0BD6FF066
:102B70008B00FAE76FF08B00F7E76FF08B00F4E75C
:102B800070B582B006460C461546126801926A4638
:102B900001A92046FFF7D6FD034610B1184602B042
:102BA00070BD304600F038FE90B9009A019921447A
:102BB000304600F08BFE034620B9019A00990A4482
:102BC0002A60EBE7304600F033FE6FF08D03E5E757
:102BD0006FF06D03E2E770472DE9F04780460F463E
:102BE000914600F0C1FD3E46D7B100260E4C4D4641
:102BF0004FF0010A09E04B4512D85146FFF746FC59
:102C0000002323700136B7420AD008EB0600237870
:102C1000002BF2D101332278002AECD1AB42F9D952
:102C20003046BDE8F08700BFBDFE0120F0B4124B76
:102C30001880124800F580670022164641F22105EF
:102C400006E040F8043F02F5807292B2B84210D01C
:102C500011460824334683EA010C1CF4004F14BFCC
:102C600085EA43035B009BB2490089B2013CF2D183
:102C7000E7E7F0BC704700BFBEFE0120AC57002064
:102C80002DE9F04121F00F0112F00F0F08D054424E
:102C900002F00F0304F00F0458BF6342D21A10323F
:102CA000144656188518A6EB04082F1B002C0ADDC5
:102CB00000F052FD0028FBD14146384600F064FB8D
:102CC00020B1103CEFE70020BDE8F0810120FBE7D8
:102CD0002DE9F041146AD669B4421ED21F46164649
:102CE0000D4680469069631C13624FF40A7303FB20
:102CF0000400086000F090FD034610B11846BDE8DE
:102D0000F08196F824301F4386F824701022414643
:102D10002868FEF7F1FB0346F0E76FF0A903EDE743
:102D20002DE9F04105460E46144698469DF8187068
:102D30000A46002100F020FD3046464528BF4046A7
:102D400057B938B1013D231814F8016B05F8016F2C
:102D5000A342F9D1BDE8F0810028FBD00544231837
:102D600014F8016B05F8016D9C42F9D1F2E7F0B15E
:102D700070B582B0044615460E4640F60412002196
:102D800000F0FAFC0023C4F8B8580193009304F54E
:102D90008D6304F5107204F1180104F5D26000F09F
:102DA000DBF8034638B96661184602B070BD6FF0B3
:102DB000AC03184670476FF07C03F5E72DE9F0414E
:102DC0004768D1F80480474510D004460D461646A2
:102DD000FFF78DFDB0F1FF3F0CD0776032462946FA
:102DE0002046FEF725FF0020BDE8F0815760FEF782
:102DF000B1FEF9E7C6F80480324621462846FEF7C0
:102E000017FF0020F0E7F0B583B0089D099C90B152
:102E100006469AB1ADB1BCB1D4F8B80810F1020FB2
:102E200002D1384603B0F0BD304601940095FFF75B
:102E3000A8FB0746F5E76FF0A907F2E76FF0A907CF
:102E4000EFE76FF0A907ECE76FF0A907E9E7FEE706
:102E500038B5044600F05CFC002C16DB63090C4915
:102E600051F8235004F01F04E54005F0010501224C
:102E700002FA04F4203341F82340BFF34F8FBFF32D
:102E80006F8F00F04EFC284638BD0025F9E700BFE3
:102E900000E100E0303132333435363738394142E1
:102EA000434445464748494A4B4C4D4E4F5051527A
:102EB000535455565758595A61626364656667683A
:102EC000696A6B6C6D6E6F707172737475767778FA
:102ED000797A2B2F000000BF10B5054C227832B94B
:102EE000044B13B10448AFF300800123237010BDDD
:102EF000905A0020000000000000000008B5034BBD
:102F00001BB103490348AFF3008008BD0000000077
:102F1000945A0020000000000D4B01221A601A464E
:102F2000136913F0010FFBD1094B10221A60032221
:102F30001A734FF47A429A8333229A72054A002117
:102F4000116020225A721A461369002BFCD1704777
:102F50000020004074FF0120F8B50C4617461E46BD
:102F6000069D08B100F0ACFB14B1204600F0A8FBB0
:102F700017B1384600F0A4FB16B1304600F0A0FBB4
:102F800015B1284600F09CFB079B13B1184600F0D2
:102F900097FB0020F8BDFEE7431E13F1030F0FD887
:102FA00083B2042B0ED80A4A02EB4312D269824242
:102FB0000AD15A0106498A5C42B101EB43107047BD
:102FC00000207047002070470020704700207047A5
:102FD000B059002010B5044600F0BEF8B0B120464C
:102FE000FFF7DAFF044678B1437843B90020207533
:102FF00060752070044600F027F8204610BDFFF7EA
:1030000009FD00236370F1E70124F4E70124F4E7EC
:10301000A1B110B40A4B1B8841180A4C10F8012BBF
:1030200082EA132254F8222082EA03239BB28842C8
:10303000F4D1034A13805DF8044B7047704700BF1A
:10304000BEFE0120B05700200B4B93F90830002B37
:1030500008DB590903F01F03012202FA03F3074AB0
:1030600042F82130044B93F830301BB9024B012257
:1030700083F83820704700BF505A002000E100E07C
:103080000C4B0822C3F88020BFF34F8FBFF36F8F24
:103090004FF48052C3F88020BFF34F8FBFF36F8F80
:1030A0004FF48002C3F88020BFF34F8FBFF36F8FC0
:1030B000704700BF00E100E06AB130B4154669B165
:1030C00078B10C68621C9A420ED8035D2B700A60BE
:1030D000002030BC70476FF0AC0070476FF0AC0060
:1030E000F7E76FF0AC00F4E76FF08300F1E738B575
:1030F00005460C46C0F30B037BB964B100F02CFB12
:103100000028FBD1284600F06FFB40B1013CA4B27F
:1031100005F58055F1E7002000E0022038BD0120D0
:10312000FCE7FEE7001000040000000100001000B2
:10313000020000008C3400000000F000483600005F
:1031400001000000D8380000FE0FFFFF0000000063
:10315000FFFFFF0FFFFFFFFF08B50B4B93F8303069
:1031600083B9094B93F83830012B01D000200AE0D5
:10317000054B002283F8382093F90800FFF768FE1A
:10318000012000E0012008BD505A0020ABB1F0B48E
:1031900005461E46043A002402E00134B44209D038
:1031A00052F8040F4368AB42F7D847693B448B425F
:1031B000F3D300E00020F0BC704700207047FEE72A
:1031C00038B5EFF3108572B6084C20634FF4804396
:1031D00063600F2262601140A160A36000F010F9EB
:1031E0004FF40043A36085F3108838BD0006004407
:1031F0004FF088430022C3F8B020084AC3F8B0203B
:1032000002F12B42A2F54B12A2F6AB42C3F8B0205A
:1032100003F5206301229A641B6CFEE7556699AAA8
:103220000A4B5B6B73B168B1002105E09A68801AA4
:1032300099609B6933B128B19A688242F6D39A6843
:10324000101A9860014B5A691A617047505A002051
:103250000A4B1B6898420AD0084A0123D168814270
:1032600006D001330C32082BF8D100207047002320
:1032700003EB4303014800EB8300704728FE012065
:1032800070B505460C461646FEF7F8FF002808DB29
:103290006368052B08D132462146284602F064FABD
:1032A00070BD6FF48770FBE76FF48770F8E770B557
:1032B00006460D461446FFF7CBFF034620B11E60BD
:1032C0005D609C60002070BD6FF00100FFF7C0FFE3
:1032D00003460028F3D16FF08300F4E708B5084BEC
:1032E0005B7A63B1064A937A3321917203F0FF004F
:1032F0002BB1044B1B6813B1024A5168984708BDB3
:103300000020004074FF012093B1F8B51F46164617
:103310000D4604460021284600F02EFA3346224688
:1033200029460020B84700280CBF28460020F8BDD9
:10333000704770B5ADF50A7D04460E4615466846E1
:1033400000F0BEF93146684600F068F92A46694641
:103350002046FFF733FD0DF50A7D70BD012911D917
:1033600030B44D0801390144013800230A7810F8BF
:10337000014F01F8014902700133DBB2AB42F5D3D2
:1033800030BC70477047FEE708B502460846116832
:10339000064B19645168196591681966D2681A67F5
:1033A0000221FFF70DFF012008BD00BF0006004409
:1033B000084A537943F080035371136913F0040FE3
:1033C000FBD1044A537913F0E00FFBD1014B988AEB
:1033D000704700BF0020004008B510B1012805D09B
:1033E00008BD0621044800F07FF9F9E706210348EB
:1033F00000F07AF9F4E700BF481300005013000012
:10340000064B00221A62064A1A6202F12B42A2F50A
:103410004B12A2F6AB421A62704700BF000600448E
:10342000556699AA074B00221A609A815A601A467B
:10343000D369002BFCD1034BBF221A7500221A76E8
:10344000704700BF000C004008B50B68032B06D185
:103450004B68043B012B05D8FFF712FF08BD6FF442
:103460008770FBE76FF48770F8E7FEE708B5012186
:10347000084600F097F8012000F0BCF9002102484E
:1034800000F0BEF908BD00BFF15D000000000001C2
:10349000FFFF0700000000000100000000008001A5
:1034A000FFFF0700000000000100000008B5064B08
:1034B0001B7813B1012B04D008BD034B01221A70F5
:1034C000FAE7FFF777FA00BFE05A00200023036015
:1034D000436000F1080200F50A701946134603F82C
:1034E000011B1A468342F9D1704700B58DB068467A
:1034F00000F020F9009B23B19DF82C10684600F0E5
:1035000067F90DB05DF804FB08B5044B1B6B13F4B1
:10351000806F02D0024B1B68984708BD000A004428
:10352000040200010D380000BD350000D535000053
:10353000553800008536000099360000B133000090
:1035400030B501390024A24206D0035D01340D5D7F
:10355000AB42F8D0581B00E0002030BD08B5034B4B
:103560001B6813B1024A1068984708BDF4FF012098
:10357000F8FF0120044A9368D06883423EBF024AA4
:1035800012699B18181A704790FF0120044BD86AE3
:103590009B6A984282BF024A126B9B18181A7047A6
:1035A00090FF0120044B93F8342083F8340083F813
:1035B0003C101046704700BF90FF0120044A13687A
:1035C00043F002031360136913F0020FFBD170473D
:1035D00000200040044A136823F0020313601369BB
:1035E00013F0020FFBD1704700200040044B1B6911
:1035F000834232BFC01AC3F58033C018704700BF82
:10360000505A002010B582B0012401940093134653
:103610000A463021FFF788FA02B010BD38B50546DA
:103620000C4600F04DF8AC60003418BF01242C604B
:1036300038BD10B5431E0A44914200D110BD11F8A7
:10364000014B03F8014FF7E743380000812C0000DD
:1036500099370000EF300000D538000008B5034B63
:10366000186B0021FFF7ACFD08BD00BF0006004449
:1036700010B5034B1C69FFF77DFF013C201A10BDFC
:1036800090FF0120034B98831A46136913F0400FF3
:10369000FBD1704700200040034BD8831A461369C2
:1036A00013F0800FFBD170470020004008B50022C6
:1036B00002491046FFF7FBFD08BD00BF493400007A
:1036C00008B50021016041604FF40872083000F035
:1036D00053F808BD08B50021016041604FF408723D
:1036E000083000F049F808BD08B5034B1B7803B15A
:1036F00008BDFEF70BFBFBE720FF012000B5ADF690
:10370000B44D01A901F07EFE0DF6B44D5DF804FB49
:10371000EFF3108072B6BFF35F8FB0FA80F040090C
:10372000704718B1BFF35F8F62B6704772B6BFF3D0
:103730005F8F704710B5044600F088F820600123C1
:1037400084F82C3010BD08B513460A461946FFF719
:1037500070FF012008BDFEE7024B1868C0F3C030BF
:10376000704700BF00060044024BD88F0022DA8762
:10377000704700BF90FF012002440346934200D1EE
:10378000704703F8011BF9E703461A460133117825
:103790000029FAD1101A704708B508461946FFF7F4
:1037A000D2FF002008BD08B56FF001020021FEF72E
:1037B00021FF08BD08B50020FFF75AF900F05AF8BC
:1037C000FCE7A0F16103192B98BF00F05F00704780
:1037D00008B511B108B101F035FC08BD014B1888DE
:1037E000704700BFBEFE012008B50421FFF7E8FCCA
:1037F000012008BD08B1014A9063704790FF012085
:10380000014B18625962704790FF0120014B18600C
:103810005960704774FF012008B508B1FFF750FFE9
:10382000002008BD014B00221A707047E05A0020AA
:1038300008B508B1FFF74EFF08BD08B5FEF766FAF8
:1038400008BD08B5FFF70AFF08BD7047004870477C
:1038500024310000004870470090D00308B5FFF7FE
:1038600057FF08BD08B5FFF75CFF08BD2435000011
:103870001600000008B5FFF719FE08BD2A8648CEDD
:103880003D0301042B810400060000BF2B810400CE
:103890001C0000BF2B810400080000BF2A8648CE10
:1038A0003D0301012B810400210000BF2A8648CE80
:1038B0003D0301072B810400220000BF2B8104007F
:1038C000230000BF08B5FFF701FE08BD08B5FEF7ED
:0E38D00001FF08BD002070475300C409704777
:1050000010B54FF08843D3F8E04024F03002C3F8E5
:10501000E02068B1012810D000204FF08843C3F889
:10502000E040013810F1030F8CBF0020012010BDBB
:105030004FF0807000F0E6F9EFE74FF0847000F079
:10504000E1F9EAE72DE9F84F0746884642F2107287
:1050500041F210019748FDF7BFFD002800F08A815A
:10506000944B1C68944B1C60250CABB2934A138084
:10507000A6B25680043B0E2B00F26E81DFE813F0DF
:1050800054001F0026017D016C016C0184016C013C
:105090006C016C016C016C016C0187000F00FEF764
:1050A000A7F80020854B1D88072D00F067810A2D89
:1050B00000F06B812D04042828BF02206FE17D4B96
:1050C000D3F804907D4BC3F8049043463A464946D2
:1050D0004846FEF75BF80746002800F05E81A4B260
:1050E000038803FB04944368426913449C4280F0A4
:1050F00054818369002B00F076811A68002A00F041
:1051000064819047B86A49EA0009F86A09EA000030
:10511000BB69002B00F02281DB68002B00F02081AE
:105120003146984780B2BDE7624B5868634B586080
:1051300043463A460146FEF729F80446002800F0A7
:105140002C8142690088B2FBF0F66368B1B200FBC3
:1051500001311A44914200F22081A269002A00F034
:1051600042811168002900F0248188476068A36AA1
:105170001843E36A1840A369002B00F0F380DB6852
:10518000002B00F0F180B1B2984780B28AE7494B1A
:10519000D3F804A0494AC2F804A0D3F80890C2F892
:1051A0000890DC68D4601033136143463A460AEB3A
:1051B00009015046FDF7EAFF0746002800F0ED80A0
:1051C000836A4AEA030AC36A0AEA030A83696BB17B
:1051D0001A6812B19047BB6943B15B6833B14A4664
:1051E000514637489847002840F0C080012E07D02C
:1051F000022E32D00025AC4214BF0220002051E71D
:105200005646BB694BB1D3F80880B9F1000F4FD0B7
:105210000025DFF8B4A02B4F05E04FF00008F4E7BD
:10522000B9F1000FE7D0DAF800204A4528BF4A4616
:105230009346434639463046FEF766F85E44A9EB8E
:105240000B09BBF1000FEBD00BEB07023B4613F849
:10525000011B0D449A42FAD1E2E75646BB6923B3DB
:10526000D3F808804FF6FF70FDF7E0FCB9F1000FAE
:1052700017D0DFF854A0134FDAF800504D4528BF7F
:105280004D4643462A4639463046FEF73DF82E4401
:10529000A9EB050929463846FDF7BAFEB9F1000F1A
:1052A000EAD1FEF79BFA0546A5E74FF00008D9E7DB
:1052B0004D46A0E7A04700207CFF0120C45A0020F3
:1052C000B047002000000020F0FF0120484A50684D
:1052D000484B58609168996043463A460144FDF74F
:1052E00055FF0746002858D0836913B11B6803B1E6
:1052F0009847404B5E68BA6A1643FA6A1640D3F87C
:1053000008803C6BB8F1000F32D0DFF8F0A04FF00E
:10531000000BDFF8EC90DAF80050454528BF454611
:10532000BB6993B19B682A4649463046FDF7ECFFBE
:105330002E4425F0030149444B468B4207D053F8D5
:10534000042B9442F9D00220ACE65B46EBE7B8EBC5
:105350000508E0D10020A5E60320A3E60020A1E691
:1053600000209FE600209DE600209BE6022099E6B3
:10537000002097E64FF0FF3019E0012040F4E020D4
:105380001D4B186004210EE0002040F420201A4B31
:10539000186000225A60082105E02D0402202843ED
:1053A000154B186004211448FEF747FA0020BDE8A9
:1053B000F88FA06A0343E06A1840D368002B7FF49B
:1053C000E2AE0C4B1D88002074E6826A49EA0209AD
:1053D000C06A09EA0000DB68002B7FF4A1AE054B30
:1053E0001D88002066E6034B1D88002062E600BF92
:1053F000A0470020C45A0020AC5A0020F0FF012032
:10540000000000202DE9F04F9DB005460C460CAE83
:10541000CB4F0FCF0FC60FCF0FC60FCF0FC697E8DA
:105420000F0086E80F0000230B932E46049305938C
:1054300006930793089309930A9302238DF8243067
:1054400001238DF8253055238DF82A30B5F1807F62
:105450000DD0B5F1847F14BF022701273369013BCA
:1054600013F1030F05D900201DB0BDE8F08F002710
:10547000F4E74FF4007229462046FEF7DAF80023DD
:10548000A36023746374A374E374A3751C2204A93A
:105490002046FEF755F808B10020E5E704F5007A4C
:1054A00004F6043B04F60C4804F68C49FEF7FEF8BB
:1054B00020210CA8FDF752FF202114A8FDF74EFF74
:1054C000AB7D5BB995F82430002B40F0A8809D4B54
:1054D000013BFDD1306A00F50070C5E74046FEF79C
:1054E00062F94FF4007229462046FEF7A2F8002127
:1054F00084F8B711482204F5DC70FEF73DF94FF44B
:10550000F67204F114014046FCF7B2F849464046F1
:10551000FCF7D0FD4046FEF798F9AB7D012B61D03A
:10552000AB7D022BCED1002211465046FDF71FFC69
:105530000723524620215846FCF70AFE0DF1300C95
:10554000BCE80F00C4F82002C4F82412C4F82822D2
:10555000C4F82C32BCE80F00C4F83002C4F834128E
:10556000C4F83822C4F83C320823C4F818320023A7
:10557000C4F81C320DF1500CBCE80F00C4F848040C
:10558000C4F84C14C4F85024C4F85434BCE80F00D8
:10559000C4F85804C4F85C14C4F86024C4F8643433
:1055A0000823C4F840340023C4F844340123C4F869
:1055B0006836C4F8703695F8B711CDF804A00BAB77
:1055C000009320234A4605F5DC70FDF71CFC039090
:1055D0003846FDF701FF039BD3B91C215A48FEF75B
:1055E00083F86FE73846FDF7F7FE202205F5DC71FA
:1055F0004846FDF7A5FF20B91A215448FEF774F874
:105600008EE718215248FEF76FF84FF0FF302BE776
:105610001A215048FEF768F84FF0FF3024E7404663
:10562000FEF7C1F8326A05F500714046FCF720F834
:1056300049464046FCF73EFD95F82430012B62D0E8
:1056400095F82430022B7FF442AF002211465046D9
:10565000FDF78DFB0723524620215846FCF778FDC5
:105660000DF1300CBCE80F00C4F82002C4F824127D
:10567000C4F82822C4F82C32BCE80F00C4F8300269
:10568000C4F83412C4F83822C4F83C324FF0080B86
:10569000C4F818B24FF00008C4F81C820DF1500C89
:1056A000BCE80F00C4F84804C4F84C14C4F85024F3
:1056B000C4F85434BCE80F00C4F85804C4F85C14AF
:1056C000C4F86024C4F86434C4F840B4C4F8448412
:1056D0000123C4F86836C4F8703695F82810CDF860
:1056E00004A00BAB009320234A4605F12900FDF7E7
:1056F0008AFB04463846FDF76FFED4B914211648DC
:10570000FDF7F2FFE3E63846FDF766FE202205F1DD
:1057100029014846FDF714FF20B915210F48FDF770
:10572000E3FF8DE713210E48FDF7DEFF4FF0FF305A
:105730009AE612210B48FDF7D7FF4FF0FF3093E6B2
:1057400058130000FFFF0500D0130000B413000041
:1057500098130000F013000038140000201400001B
:105760000C140000501400002DE9F04FADF27C4DF8
:105770000D46CB691B691C68C54E3046FEF758F8CC
:10578000EB691B691022D9683046FBF7B5FEE4B21D
:10579000231D1946029300270097234606F10802AD
:1057A0008946BC48FDF7BCFABB4E264404F10C0206
:1057B00039463046FDF7E0FF06EB040808F10C0B14
:1057C000442239465846FDF7D7FF4FEA490A524668
:1057D000394608F15000FDF7CFFF30223946AF4877
:1057E000FDF7CAFFDFF8C082D8F800304FF48072AE
:1057F0005A80D8F800301A7902F0FE0267F3C3022B
:105800001A71A7B29F824FF480521A8207EB0209E5
:1058100009F10409A3F8129007F608025600DE8287
:1058200006F144029A8350221A70D8F800004CF214
:10583000010303819A4B9847D8F800301B8923B1A4
:1058400018460DF27C4DBDE8F08F302200219348C0
:10585000FDF792FF8E48FDF7EBFFEB691B69102205
:10586000D9698B48FBF748FE0BEB04030C33AAF114
:10587000080A05930AEB0301069101F1080303935B
:1058800003EB040A0AF1040A4FF00008CDF8008087
:105890002346844A02995046FDF742FA7C48FDF7B8
:1058A000C7FFEB691B691022196A7948FBF724FED0
:1058B000A2440AF1040ACDF800802346794A0299ED
:1058C0005046FDF72DFA4FF0010C8DF877C4A24435
:1058D0000AF1040ACDF8008001230DF27742029903
:1058E0005046FDF71DFA6A48FDF7A2FFEB691B69F8
:1058F000102299696648FBF7FFFDCDF8008023462A
:10590000684A02995846FDF70BFA6148FDF790FF87
:10591000EB691B69102219695D48FBF7EDFDA24494
:105920000AF1040A0AEB040B0BF1040B0BEB040362
:10593000043304931819011D0846CDF8008023464E
:10594000584A02990790FDF7EBF9EA699369CDF897
:1059500000809B00203202995046FDF7E1F9EA6988
:10596000D2F84032CDF800809B0002F51272DDF8CB
:1059700008A051465846FDF7D3F9EA69D2F86834D1
:10598000CDF800809B0002F58E6251460498FDF729
:10599000C7F96B694FF0010CCDF800C0A34228BFD6
:1059A00023462A6951460398FDF7BAF90DF5137C91
:1059B0006046FDF73DFF0DF1240C6046FDF738FF12
:1059C00009AB93AAE968A868FCF74CFE03460028D7
:1059D0007FF436AF939BCDF800809B0095AA51468B
:1059E0000598FDF79DF9099B0698001BCDF80080EE
:1059F0009B000BAA51460430FDF792F9E20007988C
:105A000020442C3241460430FDF7B6FE264C236874
:105A1000A3F80280226857844FF480539382A2F83F
:105A2000169007F2044007EB80003B1803F11801C1
:105A30001182568207EB47010B449BB2194489B28D
:105A400001F1300CA2F81CC0243313839784143066
:105A5000D08307F10C033344538334370F44178446
:105A60005523137020684CF2010303810F4B9847B4
:105A70002368188920B9AB6901221A600346DFE662
:105A800048F202039842F9D1AB6900221A60F5E7A7
:105A900000FC0120001001020410010288FE012018
:105AA0000900000208FC0120B8FE01202D000002C0
:105AB0000E000000080000008801000094010000B2
:105AC000B4010000D4010000F40100001402000041
:105AD000300200008438000005000000B60000001D
:105AE00001000000100000000A0000005002000049
:105AF0005C02000080020000A4020000C802000056
:105B0000EC020000100300008C38000005000000CB
:105B1000CC00000001000000140000000C00000098
:105B200034030000400300006C03000098030000F1
:105B3000C4030000F00300001C04000094380000BF
:105B400005000000B800000001000000180000007F
:105B50000100000048040000540400008804000014
:105B6000BC040000F00400002405000058050000FB
:105B70009C3800000800000008020000010000003E
:105B80001C0000000E0000008805000094050000C5
:105B9000D00500000C060000480600008406000046
:105BA000C0060000A438000005000000D10000007D
:105BB000010000001E00000004000000FC060000C0
:105BC000080700004807000088070000C807000019
:105BD00008080000480800007C38000008000000A9
:105BE0000B02000001000000200000000700000080
:105BF0008808000094080000D80800001C09000074
:105C000060090000A4090000E8090000AC380000A9
:105C1000080000000E02000001000000300000003B
:105C20000F0000002C0A0000380A00009C0A000047
:105C3000000B0000640B0000C80B00002C0C0000DF
:105C4000B438000005000000D20000000100000090
:105C50004200000010000000900C00009C0C0000AE
:105C6000200D0000A40D0000280E0000AC0E000066
:105C7000300F0000BC38000005000000D300000019
:105C80000100000000000000FFFFFFFF0000000017
:105C90000000000000000000000000000000000004
:105CA00000000000000000000000000000000000F4
:105CB00000000000000000004FF08842D2F80031E0
:105CC00013F4007FFAD00023424901334A6A12F0EC
:105CD000010F11D1B3F5FA5FF7D13E4B5B6A13F0B8
:105CE000010F0CD13B4A536843F480735360536AED
:105CF00013F0010FFBD002E0B3F5FA5FEDD2364AA4
:105D0000B2F8BA3403F0FD03A2F8BA3400223149E4
:105D100001324B6A03F00303032B13D0B2F5FA5F91
:105D2000F6D12C4B5B6A03F00303032B0DD0294AF9
:105D3000536843F400735360536A03F00303032B67
:105D4000FAD102E0B2F5FA5FEBD24FF088430022BD
:105D5000C3F8B020214AC3F8B02002F12B42A2F5CB
:105D60004B12A2F6AB42C3F8B02003F520631C4AE5
:105D70001A624FF480721A6001229A601A46136800
:105D800013F0010FFBD1174B48F20902C3F8502161
:105D900040F201221A674FF400429A674FF088439D
:105DA000114A1A6600221A67C3F880200F4AC3F806
:105DB000C02047F2CE72C3F8E0204FF03332C3F870
:105DC000B020044B5A6842F010025A604FF08072C3
:105DD0001A6070470040014100200141556699AAB0
:105DE000080100C0000A004400900009CF01012012
:105DF00010B9024B01221A70704700BFBDFE01208E
:020000040004F6
:105F8800FFFF000000E00E8438FC745F38441214F0
:085F980003000071020000008B
:045FBC0000000010D1
:020000040100F9
:1000000000000000000000004D43485000000000C8
:100010000100000002010200000055000000000184
:10002000807A020002000000483046022100E4E12C
:10003000C32CBE7A2532EE616D8A883F1FF7FD8F93
:10004000BDA7D4FE3185BF8F7147ACAECAB40221C3
:1000500000C478B825E281BDCB37D4A223D7286A63
:100060006A83F76AB84504FE85E660B5ECC6B2C09F
:10007000160000000000000000000000000000006A
:100080000000000000000000000000000000000070
:100090000000000000000000000000000000000060
:1000A0000000000000000000000000000000000050
:1000B0000000000000000000000000000000000040
:1000C0000000000000000000000000000000000030
:1000D0000000000000000000000000000000000020
:1000E0000000000000000000000000000000000010
:1000F0000000000000000000000000000000000000
:1001000000000000000000000000000000000000EF
:1001100000000000000000000000000000000000DF
:1001200000000000000000000000000000000000CF
:1001300000000000000000000000000000000000BF
:1001400000000000000000000000000000000000AF
:10015000000000000000000000000000000000009F
:10016000000000000000000000000000000000008F
:10017000000000000000000000000000000000007F
:10018000000000000000000000000000000000006F
:10019000000000000000000000000000000000005F
:1001A000000000000000000000000000000000004F
:1001B000000000000000004730450221008A7E81D7
:1001C0007DB6A6D35504A0C500308C2A2AF1BA2EDC
:1001D000AD60E9F8D36C39EE7A4957618C0220386A
:1001E00007362D9184C33EC090BD11339ECBFD4C8C
:1001F00080A0DFA83BC0A0E9A3D8CB6453CD5000BA
:10020000F0930120918C0101DF3E02012B46020197
:10021000CF580201FB6B02010371020100000000D4
:10022000000000000000000000000000A1500201DA
:10023000EB4F02010000000011CD0101653F0201FA
:10024000554602014D070201B3150201B1650201D5
:10025000B3150201B3150201B3150201B315020172
:10026000B3150201B3150201B3150201B315020162
:1002700079B30001B3150201B3150201B3150201F0
:10028000B3150201B3150201B3150201B315020142
:10029000B3150201B3150201B3150201B315020132
:1002A000B3150201B3150201B3150201B315020122
:1002B000B3150201B3150201B315020131C10101E9
:1002C000516B0101B3150201B3150201B31502010F
:1002D000B3150201B31502017DD70101B315020167
:1002E00000203200F00000200000000000000000AC
:1002F00001203200F000002000000000000000009B
:1003000002203200F0000020000000000000000089
:1003100003203200F0000020000000000000000078
:1003200004203200F0000020000000000000000067
:1003300005203200F0000020000000000000000056
:1003400006203200F0000020000000000000000045
:1003500007203200F0000020000000000000000034
:10036000F8B500BFF8BC08BC9E467047DD0E020120
:10037000F8B500BFF8BC08BC9E467047B90E020134
:100380007877000001000000DCCE00201C00000097
:100390000000000093D000200100000000000000D9
:1003A00022D30020020000000000000000D2002044
:1003B0000400000000000000CCCD00202800000058
:1003C00000000000000000200C0000000000000001
:1003D0000C0000202400000000000000A7D0002036
:1003E0000100000000000000BBD000200100000060
:1003F0000000000030000020C000000000000000ED
:10040000F0000020320000000000000004D20020B4
:10041000040000000000000008D2002004000000DA
:1004200000000000E3D100200100000000000000F7
:100430000CD200200400000000000000BCD000200E
:100440001000000000000000CCD0002010000000D0
:100450000000000081AB002001000000000000004F
:1004600032D300200200000000000000A1B80020EC
:10047000010000000000000010D200200400000075
:100480000000000014D20020040000000000000062
:1004900061BF002001000000000000004ACF0020E2
:1004A000020000000000000018D20020040000003C
:1004B0000000000070CA0020600000000000000082
:1004C00027C1002001000000000000001CD2002015
:1004D000040000000000000020D200200400000002
:1004E0000000000024D200200400000000000000F2
:1004F00028D2002004000000000000002CD20020C0
:10050000040000000000000030D2002004000000C1
:10051000000000005CAF0020780300000000000035
:10052000A4D10020080000000000000030C9002015
:1005300070000000000000007CCF002014000000CC
:1005400000000000ACD10020080000000100000005
:10055000312E302E302E3000F6D100200200000067
:100560000100000008000000F0D10020050000009C
:10057000010000004D43485000000000FED1002063
:10058000020000000100000005000000DCD1002096
:10059000070000000100000057425A3435310000C6
:1005A00012D300200200000001000000070000003C
:1005B00034D30020020000000000000030D30020EF
:1005C00002000000000000002CD300200100000009
:1005D0000000000028D300200100000000000000FF
:1005E00024D3002001000000000000000ED30020F2
:1005F0000200000001000000010000001ED30020E6
:10060000020000000100000001000000DACE00201E
:1006100002000000010000000100000094C500205D
:1006200090000000010000000A480201647102010C
:10063000229901011000000104480201246C02010A
:10064000CA790101130000015471020124D3002072
:10065000DACE00200100060904480201FC6B020109
:10066000E65E010113000001347102012CD3002069
:100670000ED30020F7000D90FE47020134D3002076
:10068000C27C01010200219904480201106C0201A0
:10069000FA670101130000014471020128D3002010
:1006A0001ED30020F7000D90FE47020130D300203A
:1006B000B28301010200219990CF002014000000B4
:1006C000010000000000000094C50020307A020103
:1006D000000108010200000020D3002002000000F9
:1006E000000000001CD300200200000000000000F9
:1006F00018D30020010000000000000014D30020E7
:10070000010000000000000010D3002001000000E4
:1007100000000000DCD000201000000001000000FC
:100720007E3B07FF1C51492FB3398A4C4353534931
:10073000ECD000201000000001000000B39B7234D8
:10074000BEECD4A8F443418843535349FCD0002065
:10075000100000000100000016962447C62361BA6D
:10076000D94B4D1E4353534980D000201300000045
:10077000010000001CA7007E3B07FF1C51492FB35E
:10078000398A4C435353490094D000201300000091
:10079000010000000CA500B39B7234BEECD4A8F499
:1007A0004341884353534900A8D000201300000060
:1007B0000100000018A20016962447C62361BAD98A
:1007C0004B4D1E4353534900A4CF0020140000009A
:1007D000010000000000000024C60020387A020159
:1007E000A000A800020000000CD1002010000000B2
:1007F0000100000055E405D2AF9FA98FE54A7DFEB8
:100800004353534982AB0020020000000100000066
:1008100001000000A2B8002002000000010000005A
:100820000100000062BF0020020000000100000083
:100830000100000024C6002090000000010000001C
:100840000A4802010CD100201EF60101100000012F
:1008500004480201A8D0002076DA0101130000014B
:10086000FCD0002010D3002062BF0020F7000D1044
:10087000FE4702011CD30020F6EE01010200211107
:100880000448020194D000207AD401011300000131
:10089000ECD0002014D30020A2B80020F7000D10E7
:1008A0000448020180D000209AA201011300000137
:1008B000DCD0002018D3002082AB0020F7000D1000
:1008C000FE47020120D3002012E80101020021119D
:1008D00044CD0020300000000000000034D2002091
:1008E000040000000000000038D2002004000000D6
:1008F000000000005CD100200C000000000000009F
:1009000038C700208000000000000000B8C70020A9
:100910008000000000000000C8CC00204000000063
:100920000000000068D100200C0000000000000062
:1009300000C20020C8000000000000003CD20020DF
:100940000400000000000000FDC1002001000000C4
:100950000000000074D100200C0000000000000026
:100960003CCE00202000000001000000064A136871
:1009700023F49F7323F0010343F011031360092351
:1009800000BF013BFCD1704700240144240100203A
:100990004C00000000000000700100200400000076
:1009A0000000000040D20020040000000000000011
:1009B00044D20020040000000000000048D20020C3
:1009C00004000000000000004CD2002004000000E1
:1009D0000000000050D200200400000000000000D1
:1009E00054D20020040000000000000058D2002073
:1009F00004000000000000005CD2002004000000A1
:100A00000000000060D20020040000000000000090
:100A100064D200200400000001000000AAAAAAAAD3
:100A200068D20020040000000000000094010020B3
:100A300000A00000000000006CD2002004000000B4
:100A40000000000070D20020040000000000000040
:100A500074D20020040000000000000078D20020C2
:100A600004000000000000007CD200200400000010
:100A700000000000B4D100200800000000000000C9
:100A800080D20020040000000000000084D200207A
:100A9000040000000000000088D2002004000000D4
:100AA000000000000CCA00206400000000000000EC
:100AB0008CD20020040000000000000090D2002032
:100AC000040000000000000094D200200400000098
:100AD0000000000098D20020040000000000000088
:100AE0009CD200200400000000000000B8CF0020CD
:100AF0001400000000000000CCCF00201400000013
:100B000000000000A0D2002004000000000000004F
:100B1000A4D200200400000000000000A8D20020A1
:100B20000400000000000000ACD20020040000001F
:100B300000000000E0CF00201400000000000000D2
:100B4000B0D200200400000000000000F4CF00201C
:100B5000140000000000000008D000201400000075
:100B600000000000B4D200200400000000000000DB
:100B7000B8D200200400000000000000BCD2002019
:100B80000400000000000000C0D2002004000000AB
:100B9000000000001CD00020140000000000000035
:100BA00030D000201400000000000000C4D200205B
:100BB0000400000000000000C8D200200400000073
:100BC00000000000CCD20020040000000000000063
:100BD000D9CE0020010000000000000049CF002015
:100BE000010000000100000001000000740100206D
:100BF0000200000000000000D0CA002060000000D9
:100C00000000000078010020080000000000000043
:100C1000F5D100200100000000000000D0D200202B
:100C20000400000000000000FDD1002001000000D1
:100C300000000000D4D200200400000000000000EA
:100C4000D8D200200400000000000000DCD2002008
:100C50000400000000000000E0D2002004000000BA
:100C6000000000005CCE002020000000000000001A
:100C70007CCE0020200000000000000011D30020E6
:100C8000010000000000000074CD00202C000000D6
:100C9000010000001020000000000039F0010111E7
:100CA0002101E4D100200000000012220000000019
:100CB00000BD2D0201132303E5D100200000000038
:100CC00080D100200C000000010000004001E4D1B0
:100CD00000204102E8D10020E4D1002006000000FD
:100CE000010000000055FFFF00000000E4D20020DA
:100CF0000400000001000000000048C2E8D200200B
:100D00000400000001000000000048C20CD30020D5
:100D100002000000000000008CD100200C00000048
:100D200000000000B8C800207800000000000000AB
:100D3000ECD200200400000000000000BCD1002024
:100D40000800000000000000B4C60020840000007D
:100D50000000000064BF0020E80000000100000067
:100D6000000000003D760201010000003D76020116
:100D7000020000003D7602010500000065580101F7
:100D80000600000065580101070000003D760201E1
:100D9000080000003D760201130000003D760201CC
:100DA000090000003D7602010A00000055760201AC
:100DB0000B000000497602010C0000003D760201A4
:100DC0000D0000003D7602010E0000006558010193
:100DD0000F00000065580101100000006D7602014F
:100DE000110000003D7602011E0000003D76020168
:100DF000120000003D760201140000003D76020161
:100E00001500000079760201160000006D760201DF
:100E100017000000857602011800000085760201A7
:100E200019000000857602011A0000006D760201AB
:100E30001B000000797602011C0000003D760201D3
:100E40001D0000006176020160BB00204802000026
:100E50000000000030CB00205C000000000000001B
:100E6000C4D100200800000000000000EAD10020EA
:100E70000600000001000000020700A62A01000091
:100E80004CC00020D900000000000000A4B80020E1
:100E9000BC020000000000001CD100201000000077
:100EA00000000000A0C900206C000000000000004D
:100EB0004CCF002018000000000000002CD10020C2
:100EC000100000000000000044D0002014000000CA
:100ED000000000009CCE0020200000000000000068
:100EE000C8C20020C000000001000000117C020107
:100EF000117C0201117C0201117C0201117C0201B2
:100F0000117C0201117C0201117C0201117C0201A1
:100F1000117C0201117C0201117C0201117C020191
:100F2000117C0201117C0201117C0201117C020181
:100F3000117C0201117C0201117C0201117C020171
:100F4000117C0201117C0201117C0201117C020161
:100F5000117C0201117C0201117C0201117C020151
:100F6000117C0201117C0201117C0201117C020141
:100F7000117C0201117C0201117C0201117C020131
:100F8000117C0201117C0201117C0201117C020121
:100F9000117C0201117C0201117C0201117C020111
:100FA000117C0201117C0201117C020125C100208B
:100FB00002000000000000003CD1002010000000F2
:100FC00000000000F8CE00201C000000000000001F
:100FD00064CF0020180000000000000084AB002057
:100FE000D803000000000000A0CD00202C0000006D
:100FF0000000000058D00020140000000000000095
:10100000F0D2002004000000000000004CD10020BD
:10101000100000000000000088C30020C000000095
:1010200000000000A8BD0020B90100000000000081
:1010300038C8002080000000000000006CD00020B4
:101040001400000000000000F4CD00202400000087
:101050000000000008CD00203C000000000000005F
:10106000F0C40020A40000000100000020200001C6
:10107000FFFFFFFFFFFFFFFFFFFFFFFF000000007C
:10108000000000000000000001000000FFFFFFFF63
:10109000512563FCC2CAB9F3849E17A7ADFAE6BC1A
:1010A000FFFFFFFFFFFFFFFF00000000FFFFFFFF4C
:1010B00096C298D84539A1F4A033EB2D817D0377F2
:1010C000F240A463E5E6BCF847422CE1F2D1176B8D
:1010D000F551BF376840B6CBCE5E316B5733CE2B60
:1010E000169E0F7C4AEBE78E9B7F1AFEE242E34F8F
:1010F0004B60D2273E3CCE3BF6B053CCB0061D65CC
:10110000BC86987655BDEBB3E7933AAAD835C65A54
:10111000F4D20020040000000000000094A1002090
:10112000D805000000000000FEC100200200000001
:10113000010000007000000098D100200C000000A9
:1011400000000000C0B50020E10200000000000027
:1011500048C40020A8000000000000008CCB002044
:101160005400000000000000D4B20020EC02000097
:1011700000000000BCCE00201D00000000000000A8
:10118000CCD100200800000001000000177C020103
:10119000177C020130CF0020190000000000000081
:1011A00018CE002024000000000000007ECC0020AB
:1011B0004A000000010000000103030303030305CC
:1011C000050507070909090B0D0F111315171B1F3B
:1011D000252931375F69777F010303030303030583
:1011E000050505070709090B0B0D0F111315171935
:1011F0001D21252B31375F69737F1B1F23292F3753
:101200006B7F000030CC00204E000000000000008A
:1012100028C10020D500000000000000F8D1002007
:10122000050000000000000014CF00201C0000009A
:1012300000000000F8D200200400000000000000C0
:10124000FCD2002004000000000000006CA7002079
:10125000150400000000000015D30020010000006C
:101260000100000005000000D4D1002008000000AB
:1012700000000000800100201100000000000000BC
:1012800000D30020040000000000000004D3002070
:101290000400000000000000E0CB0020500000002F
:1012A0000000000008D3002004000000000000003F
:1012B000000000000000000008B5044B186818B1D9
:1012C000804780F00100C0B208BD00BF6CA70020BD
:1012D00009B91046704780B1037883EA122383EA84
:1012E000131343EA022282EA033282EA431292B2E1
:1012F00000B10130013989B2EAE7FF23EDE72DE9BA
:10130000F04F85B081460E9E8A46904606B11E4437
:1013100043449CB247465546A74203D1012005B03D
:10132000BDE8F08F95B36A4610232946484605F07C
:10133000D3FCBDF80420944208D9BDF8063013440C
:101340009BB29F4202D29C4203D91F46BDF80A506D
:10135000E8E79742A4EB020128BFE31B89B234BF40
:101360000B469BB2A4EB030432BFBDF80AB047465C
:10137000D346A4B246B110352944F61AC91A3246EA
:1013800089B2484605F0A8FC5D46C5E72846C6E791
:101390002DE9F74FD4889688DFF8588082468B462F
:1013A00044F307254FF6FF77002D03DA384603B0E4
:1013B000BDE8F08F1AD0A4F580741FFA84F94FF4B9
:1013C0008074CDF800802346324659465046FFF7D8
