:100000000C946B000C9488000C9488000C9488006D
:100010000C9488000C9488000C948F000C94880039
:100020000C9488000C9488000C9488000C94880030
:100030000C9488000C9488000C9488000C94880020
:100040000C9488000C9488000C9488000C94880010
:100050000C94D1050C9488000C9488000C948800B2
:100060000C9488000C94CC080C9488000C948800A4
:100070000C9488000C9488000C9488000800000000
:10008000BE922449123EABAAAA2ABECDCCCC4C3E8D
:1000900000000080BEABAAAAAA3E00000000BF007C
:1000A0000000803F0000000000084178D3BB438778
:1000B000D1133D190E3CC3BD4282AD2B3E68EC828C
:1000C00076BED98FE1A93E4C80EFFFBE01C4FF7F11
:1000D0003F000000000011241FBECFEFCDBFDFE3C3
:1000E000DEBF18E3A0E0B8E3EDE8F6E302C0059058
:1000F0000D92A43DB107D9F729E3A4EDB8E301C0FF
:100100001D92A13EB207E1F70E94D1040C942F1B6F
:100110000C9400000E946C060E946C0508951F92CA
:100120000F920FB60F9211242F933F934F935F932B
:100130006F937F938F939F93AF93BF93EF93FF93AF
:100140000E94B10582E080934301FF91EF91BF913E
:10015000AF919F918F917F916F915F914F913F915F
:100160002F910F900FBE0F901F9018950F931F9314
:10017000CF938B01C42F0E943D086C2F70E0C80103
:100180000E94A2080E94C8080E947A088130E1F308
:10019000CF911F910F910895CF93DF93C7E1D9E3DA
:1001A0001882198242E0BE0180E20E94B60084E11A
:1001B0008883198242E0BE0180E20E94B60081E09D
:1001C0008883198242E0BE0180E20E94B60085E188
:1001D0008883198242E0BE0180E20E94B600DF916E
:1001E000CF91089561110BC0E7E1F9E394E19083A9
:1001F000818342E0BF0180E20E94B6000895E7E1FA
:10020000F9E395E19083818342E0BF0180E20E949F
:10021000B600089560E080E00E94F20061E080E0B6
:100220000E94F2000895CF93DF93EC0147E050E085
:1002300062E776EB0E94FB17892B09F074C08B856F
:100240008D3009F070C01B8640E150E060E070E046
:10025000CE0107960E94FD16262F372FD901AA2717
:10026000BF70C901807F99276F70E62FF0E0FE2FE5
:10027000EE27F295F07F432F42954F7050E0342FD8
:100280002227E22BF32B2B2F30E0D901A295B29538
:10029000B07FBA27A07FBA27EA2BFB2B92958295D5
:1002A0008F7089279F708927E82BF92BE0933D39C0
:1002B000F0933E39FA013197EE0FFF1FE050F84CF2
:1002C00040815181AFE4B9E34D935C931197F901FB
:1002D0003197EE0FFF1FE050F84C208131811296CC
:1002E0002D933C931397FC013197EE0FFF1FE050C5
:1002F000F84C8081918114968D939C93159765306D
:1003000051F460E0809116380E94F20061E080E0D4
:100310000E94F20008C060E080E00E94F20061E00C
:1003200080E00E94F200DF91CF910895CF9321C029
:100330000E941209C82F823429F41092E3381092D7
:10034000E4380AC08A3041F484ED98E30E94130136
:100350001092E3381092E4388091E3389091E438B9
:10036000FC01EC52F74CC08301968093E3389093E4
:10037000E4380E9415098111DBCFCF9108950F93C6
:100380001F93CF93DF93EC01FC01EE0FFF1FEB5A9D
:10039000F64C808191810197D9F58091E538909153
:1003A000E638892B29F580915B3990915C3901976A
:1003B000F9F480913D3990913E399F70906180931E
:1003C0003D3990933E399F938F938AE796EB9F93A5
:1003D0008F930E94081860E080E00E94F20061E0C4
:1003E00080E00E94F2000F900F900F900F9009C0D4
:1003F00060E0809116380E94F20061E080E00E9487
:10040000F200CC0FDD1FCB5AD64C1882198266C081
:1004100080913D3990913E399C013F70CE0102960A
:10042000982F88279295907F822B932B80933D392C
:1004300090933E399F938F938AE796EB9F938F9388
:100440000E9408180F900F900F900F90C330D105A5
:10045000BCF48E01000F111FF801E05FF74C908192
:100460008091163860E0892B0E94F200F801E15B70
:10047000F64C61E080810E94F20080E090E023C0B1
:10048000FE01EE0FFF1FE05FF74C60E080810E94ED
:10049000F20061E080E00E94F200EFCFFC01EE0F7D
:1004A000FF1FEB5AF64C208131812130310551F488
:1004B0008C179D0739F0FC01EE0FFF1FEB5AF64C2D
:1004C0001082118201968330910544F3CC0FDD1F19
:1004D000CB5AD64C81E090E088839983DF91CF910D
:1004E0001F910F9108950F931F93CF93DF938C016A
:1004F000D1E0C4E011C08C2F90E00E94C205882397
:100500004CF4F801EE0FFF1FEB5CF64C8D2F90E0E2
:1005100080839183CF5FDF5FC83068F3DF91CF9135
:100520001F910F9108958F929F92AF92BF92CF9299
:10053000DF92EF92FF920F931F93CF93DF93CDB78C
:10054000DEB76097CDBFDEBF9C018A0190E1E2E695
:10055000F6EBDE01119601900D929A95E1F7FA0102
:10056000EE0FFF1FE65EF64C1082118262177307D2
:1005700044F56430710591F42530310579F4CA01F0
:10058000880F991FFC01EB5CF64C21E030E02083E2
:100590003183FC01E15DF64C10821182C9010197A3
:1005A000F801EE0FFF1FE15BF64C40815181403FA7
:1005B00051050CF0049661E001C0660F8A95EAF7D8
:1005C00033C0261737077CF56530710591F4243068
:1005D000310579F4CA01880F991FFC01EB5CF64CD8
:1005E00044E050E040835183FC01E15DF64C108211
:1005F000118284E090E0821B930BF801EE0FFF1F45
:10060000E15BF64C40815181493F510524F488E07B
:1006100090E0821B930B60E870E002C075956795CF
:100620008A95E2F701C060E0662309F474C070E0C7
:1006300080E090E00E9481150E94171628E132E7C1
:1006400041E35FE30E94D9140E944B154B015C010A
:100650007B01FB01EE0FFF1F81E090E08C0F9D1FDF
:10066000E80FF91FD080C18061E08D2D0E94F2005B
:10067000F801EE0FFF1FE15BF64CD082C182809142
:100680003B3990913C3981309105A1F40115110558
:1006900089F480913D3990913E39907F2FEF821AF5
:1006A000920A982C8824882A992A80923D3990921F
:1006B0003E3933C082309105D1F401301105B9F4CF
:1006C00080913D3990913E398F702FEF821A920AB6
:1006D000880C991C880C991C880C991C880C991CF6
:1006E000882A992A80923D3990923E3916C0039704
:1006F000A1F40230110589F480913D3990913E3981
:10070000807F2FEF821A920A882A992A80923D3997
:1007100090923E3902C0E12CF12CF801EE0FFF1F40
:10072000E65EF64C808191812FEFE21AF20A8E1577
:100730009F05B9F080913E398F9380913D398F9319
:100740008AE796EB9F938F930E940818000F111F62
:10075000F801E65EF64CE082F1820F900F900F9068
:100760000F906096CDBFDEBFDF91CF911F910F91AB
:10077000FF90EF90DF90CF90BF90AF909F908F90C1
:100780000895EF92FF920F931F93CF93DF938C0105
:10079000EC01CC0FDD1FCE018B5C964C7C01FC0183
:1007A00080819181C15DD64C88839983C8010E9464
:1007B000730288819981F701208131818217930723
:1007C00081F18430910549F42130310531F4F7018C
:1007D0009C012F5F3F4F20833183019791F4F801F3
:1007E000EE0FFF1FEB5CF64C808191818430910508
:1007F00041F40196F801EE0FFF1FE15DF64C808396
:100800009183C801880F991FFC01E15DF64C60815E
:100810007181FC01EB5CF64CA801808191810E9402
:100820009302DF91CF911F910F91FF90EF90089568
:10083000CF93DF93EC010E94C2058823C4F4CE015C
:10084000019680933B3990933C39CE01880F991FD4
:10085000FC01E95BF64C20813181DC01A15CB64CE6
:100860002D933C9381E090E08083918307C0FE014B
:10087000EE0FFF1FE95BF64C1082118220913B398D
:1008800030913C392130310529F4209731F040E096
:1008900050E004C040E050E001C0A9012230310521
:1008A00031F4C130D10531F080E090E005C080E046
:1008B00090E002C081E090E0842B952B8170992715
:1008C0002330310531F4C230D10531F020E030E081
:1008D00005C020E030E002C021E030E0822B932B05
:1008E000892B19F0CE010E94C103FE01EE0FFF1FFC
:1008F000E15CF64C808191810097D1F5FE01EE0F0D
:10090000FF1FE95BF64C208131812130310581F5F3
:1009100080913B3990913C398430910561F420916C
:10092000E5383091E6382130310529F41092E53868
:100930001092E63819C0049769F48091E5389091D7
:10094000E638892B39F481E090E08093E538909384
:10095000E6380AC081E090E08093E5389093E6386D
:1009600080935B3990935C39CE010E94BF0116C021
:100970000197A1F4FE01EE0FFF1FE95BF64C8081A9
:100980009181892B59F4CC0FDD1FFE01E15CF64CFF
:1009900010821182C95BD64C18821982DF91CF91E7
:1009A00008950E948A000E94CC000E940A010E94C1
:1009B000740583E090E00E94180480E090E00E94BB
:1009C000180481E090E00E94180482E090E00E9408
:1009D00018040E949601EBCFE0E3F4E08081877F6A
:1009E00080838081887F84608083E1E3F4E080817C
:1009F000877F80838081887F84608083E5E1F4E065
:100A00008081877F80838081887F84608083E4E128
:100A1000F4E08081877F80838081887F8460808309
:100A2000E7E1F4E08081877F80838081887F846034
:100A30008083E6E1F4E08081877F80838081887F06
:100A400084608083089581E08093EA3808958F5F01
:100A50008093E8380895CF93DF9385E598E30E946B
:100A6000281385E999E30E946E13C0E0D0E00BC023
:100A7000BE0185E598E30E94E013BE0185E598E399
:100A80000E94FF132196C830D10590F3C0E0D0E05A
:100A90000FC0AE01440F551F440F551F4C0F5D1F73
:100AA0004C59564C6C2F8BE298E30E949B0921967F
:100AB000C830D10570F388E198E30E94890DDF9179
:100AC000CF9108959091410192FDFCCF90E08093E9
:100AD0004A0190934B01089580E20E9462050E94B2
:100AE000EC040E942B0508958091EB38813051F47D
:100AF00063E275E085E598E30E947813811102C0F6
:100B00001092EB388091EA38813051F51092EA3832
:100B10000E94AA11811113C08BE298E30E94BA09C6
:100B2000882319F081E00E94270588E198E30E945C
:100B3000C90D882339F082E00E94270503C080E0B8
:100B40000E942705E0912B38F0912C388081882372
:100B500024F481E08093EB38089581E08093E938B4
:100B60000895809163398F5F80936339843148F0B1
:100B70001092633981E08093EB3884E190E00E9429
:100B800090090895E0912F38F09130389C01220FA0
:100B9000331F820F931F880F991FE80FF91F808161
:100BA00008951F920F920FB60F9211242F933F9327
:100BB0004F935F936F937F938F939F93AF93BF9365
:100BC000EF93FF930E944014FF91EF91BF91AF917B
:100BD0009F918F917F916F915F914F913F912F9155
:100BE0000F900FBE0F901F90189580E0089540E081
:100BF00068ED81E690E00E94F00880E00895789426
:100C000080E0089580E008C0E82FF0E0E05FFB4F4F
:100C10009081986090838F5F8830B0F380E008C047
:100C2000E82FF0E0E05DFB4F9081986090838F5F4C
:100C30008830B0F380E008C0E82FF0E0E05BFB4FC5
:100C40009081986090838F5F8830B0F3089584B16D
:100C5000877F84B9E3E3F4E08081877F808385B177
:100C60008B7F85B984B1846084B90E94020908959C
:100C700081B18B7F81B980B1846080B9E2E1F4E019
:100C80008081877F808380818F7780838081887F48
:100C90008083A0E0B2E011968C911197806111964B
:100CA0008C93119781B18D7F81B980B1826080B9B9
:100CB000E1E1F4E08081877F808380818F7780838A
:100CC0008081887F808311968C9111978061119625
:100CD0008C930E94360808950E9402060E94F70530
:100CE0000E94F4080E9427060E94FF050E94000946
:100CF0000E9438060E94F5050895E0E1F8E084813D
:100D000088608483858181608583ECEEF8E380814F
:100D10008E7F808313868EE00895ECEEF8E3808169
:100D20008E7F8083138680E00895E0E1F8E084817F
:100D3000836084830E948D060895ECEEF8E3808141
:100D400088608083818190E0880F991F8160809303
:100D5000170884E008950E949D0608950E949D064C
:100D60000895ECEEF8E38081886080838181880FAC
:100D70008093170883E008950E94B1060895ACEEB1
:100D8000B8E38C91877F8C9382E01B968C931B97A2
:100D90005096ED91FC9151975C968D919C915D9749
:100DA0000995823019F0833021F006C00E94AE060A
:100DB00008950E94BC0608950E9495060895E0E1FA
:100DC000F8E084818B7F848384E00895E0E1F8E09B
:100DD00084818B7F848383E00895E0E1F8E084815F
:100DE000846084838481836084830E948D06089557
:100DF000E0E1F8E084818460848388E00895809154
:100E0000150884FF19C0ACEEB8E35296ED91FC9141
:100E100053975E968D919C915F970995823019F05A
:100E2000833021F006C00E94AE0608950E94BC06E1
:100E300008950E9495060895ECEEF8E38081877F7F
:100E40008083A281B381CD010196828393838C91AB
:100E50008093180884819581019784839583892BD9
:100E600011F083E0089585E00895CF93DF93ECEED1
:100E7000F8E38081877F808384819581019731F4B5
:100E8000E0E1F8E084818460848305C0E0E1F8E07B
:100E900084818B7F8483ECEEF8E3848195810197D4
:100EA00084839583892BA9F0DF01C281D381E0E19E
:100EB000F8E08085888312968D919C911397019616
:100EC00012968D939C93139784818260848384E02F
:100ED00026C0ACEEB8E31296ED91FC911397809189
:100EE0001808808312968D919C9113970196129603
:100EF0008D939C9313978C9184608C931C96ED91A9
:100F0000FC911D9758968D919C9159970995825007
:100F1000823018F40E94F80602C00E94ED06DF91AC
:100F2000CF9108958091150884FF19C0ACEEB8E305
:100F30005296ED91FC9153975E968D919C915F979F
:100F40000995823019F0833021F006C00E94AE0668
:100F500008950E94BC0608950E9495060895ACEE7F
:100F6000B8E38C9184608C931C96ED91FC911D9755
:100F700058968D919C9159970995833039F084301A
:100F800041F0823049F40E94AE0608950E94BC06EA
:100F900008950E94FF0608950E9495060895E0E1D5
:100FA000F8E0858188608583ACEEB8E382E01B962B
:100FB0008C931B971E96ED91FC911F975A968D91DD
:100FC0009C915B970995823019F0833021F006C01F
:100FD0000E94AE0608950E94BC0608950E947D06F8
:100FE0000895E0E1F8E084818860848385818160F0
:100FF0008583ECEEF8E380818E7F808382E08387B7
:101000008EE00895CF93DF93E0E1F8E08581806C76
:1010100085838091EC3883FF07C08091150884FF99
:1010200003C08FE08093F6388091150883FF03C0DA
:1010300080E18093F6388091150882FF03C081E13A
:101040008093F638CCEED8E3EA85F0E0EE0FFF1F90
:10105000E056F74C0190F081E02D09958A87DF91E9
:10106000CF91089581E0089585E00895E0E1F8E0EA
:101070008FE5868381EC838308959091EC3891FD10
:1010800037C0ECEEF8E38183892F8E7F82609EE08B
:10109000928724EF31E020873187877F84608083C7
:1010A00082E398E084879587108E118E86879787D4
:1010B000128E138E808B918B148E158E828B938B58
:1010C000168E178E84E398E0848B958B10A211A264
:1010D000E0E1F8E084818860848385818160858394
:1010E0008581806C85838381806C838380E0089513
:1010F00081E008958091150882FF07C0ECEEF8E3C7
:1011000080818E7F808382E083878091EC3880FDB0
:1011100017C0ECEEF8E38D7F80838FEF8183A0E131
:10112000B8E015968C911597806C15968C93159751
:1011300013968C9113978F7313968C9383850895D0
:1011400081E008959C019091EC3892FF09C0ECEE8B
:10115000F8E32283338364837583892F8B7F8083B5
:1011600008959091EC3890FD11C0ECEEF8E3916099
:101170009083882321F081E08093F63803C082E0D9
:101180008093F6380E94020880E0089581E0089577
:1011900080E00E94B10808951F920F920FB60F923F
:1011A00011242F933F934F935F936F937F938F936C
:1011B0009F93AF93BF93EF93FF930E940208FF9119
:1011C000EF91BF91AF919F918F917F916F915F91BF
:1011D0004F913F912F910F900FBE0F901F90189538
:1011E000FC0164BF40830895809141018111FCCFCF
:1011F000E0E4F1E081E8808382E0828380E008958A
:1012000080E00895E0E0F8E083E298E0808791874D
:1012100080EC868384EC98E38093DB399093DC390F
:1012200080E0089580910008089580910408881F47
:101230008827881F08959091040895FFFCCF80931C
:10124000020808950E941B0980E090E00895CF9263
:10125000DF92FF920F931F93CF93DF93EC01AE8148
:10126000BF81EB01CC0FDD1FC60FD71FCA0FDB1FDD
:10127000FA80FC0144815581E6E0E69F9001E79FFA
:10128000300D11248A01020F131FF80122813381CE
:10129000F90121813281F80104811581201B310B74
:1012A000E8812E1B3109EC01EA81FB81008111816B
:1012B000FA0140E050E04017510739F1461757074F
:1012C000F9F012968C911297F8121AC08081855805
:1012D0008230E8F0C480D58082819381EC018981DD
:1012E0009A81C816D90660F48C199D09CC91D0E07A
:1012F000C817D90728F48C1B9D0B2817390738F01D
:101300004F5F5F4F13963696D6CF80E001C081E0E5
:10131000DF91CF911F910F91FF90DF90CF900895B3
:101320002091103930911139820F931F8093103919
:101330009093113908950097D9F041155105C1F0E6
:1013400026E0629FB0011124DC011496ED91FC911E
:101350001597E60FF71F21E0208314968D919C913D
:101360001597FC01E60FF71F4283538380E0089531
:101370008BE008952F923F924F925F926F927F92EF
:101380008F929F92AF92BF92CF92DF92EF92FF9295
:101390000F931F93CF93DF93009709F47EC3EC0163
:1013A000A12CB12C812C912C212CD12C552453947F
:1013B00033E0C32E45E8642E56E8752E62E0362EE3
:1013C00078E0472EEA81FB81808191818816990619
:1013D00008F0A6C17501EE0CFF1CEC81FD81EE0D3D
:1013E000FF1DA281B3819C919E7109F050820C81F6
:1013F0001D810E0D1F1DD8018C91843009F49EC0F3
:1014000038F48230D1F008F045C0813059F081C104
:10141000853809F4BFC0863809F4F5C0873009F073
:1014200078C136C1911167C1F80130828C819D81EC
:10143000FC01EE0DFF1D41825EC1D80111962C9179
:101440001197222329F11296ED91FC9113972530E3
:1014500018F0818192810EC0D80114968D919C91D3
:101460001597418152818417950769F048175907EC
:1014700030F4019714968D939C93159704C00196B0
:10148000F801848395832150D80111962C9333C1A0
:10149000F8012DC1D80114962D913C911597129603
:1014A000ED91FC911397418152812417350709F47E
:1014B00030C18E819F8142175307F8F4EA81FB8186
:1014C000241B350BDC01AA0DBB1D8C9190E005801F
:1014D00002C0959587950A94E2F79927281739074E
:1014E00008F417C18481882309F413C187E0F80147
:1014F0008083EA81FB8124811AC0FC01EA0DFB1D77
:10150000421B530B808190E04817590708F401C132
:101510008281882331F0B401CE010E942709811114
:10152000F8C0E4E0D801EC93EA81FB8122818C8150
:101530009D81FC01EE0DFF1D2183DDC0D8011496B5
:101540002D913C9115971296ED91FC911397818105
:1015500092818217930708F4BBC0EE81FF81EA0DE8
:10156000FB1D821B930B208130E02817390708F000
:10157000C5C08281882331F0B401CE010E942709C1
:101580008111C7C0F8018181882309F46AC08150A4
:101590008183B1C0E881F981AA81BB8118968C91C1
:1015A0008383EC81FD81EE0DFF1D44815581A28175
:1015B000B38111968D919C91129784179507C0F075
:1015C000AE81BF81AA0DBB1D6C91262F30E0119614
:1015D0007C917F5F02C0359527957A95E2F7841B51
:1015E000950B621B262F30E02817390708F48FC0AF
:1015F0007082EA81FB8122818C819D81FC01EE0D4C
:10160000FF1D218342C0D80114966D917C911597DE
:101610001296ED91FC91139721813281261737079D
:1016200058F411968C911197811102C0CC926FC021
:101630008150F80181836BC0EE81FF81EA0DFB1DB3
:101640008081482F50E091819F5F02C0559547955A
:101650009A95E2F7261B370B841B90E082179307BD
:1016600060F4D8016C92EA81FB8123818C819D8199
:10167000FC01EE0DFF1D21834AC0F801818181111B
:1016800002C0C08244C0815081832224239433C08D
:10169000F801248135810280F381E02D81819281DE
:1016A0008217930758F5281B390BEE81FF81EA0D4D
:1016B000FB1D808190E0EA81FB81058002C0959549
:1016C00087950A94E2F799272817390718F4D80163
:1016D000CC9216C0F801818181110BC050828C819F
:1016E0009D81FC01EE0DFF1D0280F381E02DC08283
:1016F00010C081508183DD24D3940BC0F801C082D7
:101700008C819D81FC01EE0DFF1D118202C02224FF
:101710002394FFEF8F1A9F0A83E0A80EB11C52CECC
:10172000E881F981808187FF23C040E050E020E01C
:1017300030E0EA81FB81808191812817390798F494
:10174000EC81FD81E40FF51FA281B3818C9180FDB6
:1017500005C09081977F11F081608C932F5F3F4F80
:101760004A5F5F4FE6CFE881F98180818F77808380
:10177000D11007C0E881F98121106FC080818E7F70
:101780006EC0EA81FB8181858823A1F3E881F9811C
:10179000808180688083EA81FB818185813051F777
:1017A00040E050E020E030E096E0D92EEA81FB8175
:1017B0006081718126173707E8F60C811D81FA01D7
:1017C000EE0FFF1FE00FF11F8081982F977FA1F18F
:1017D000853811F08330B1F5EE80FF80D701A40F7A
:1017E000B51F1296BC90BB2039F180E090E0C12C6F
:1017F00086179707F8F428173907D1F0D89ED0013B
:10180000D99EB00D1124A00FB11FAC91A43011F0DE
:10181000A63871F4DC01AA0FBB1FA80FB91FAE0DCB
:10182000BF1D1296AC91BA1203C0CB01CC24C39455
:101830000196DECFC11006C00280F381E02D8081C9
:101840008E7F05C00280F381E02D808181608083DE
:101850002F5F3F4F4D5F5F4FA9CF808181608083B5
:101860008091103990911139E881F981218132817B
:10187000A90148535F4F4817590738F4821B930B4F
:10188000AA24A394A3E0BA2E44C08217930710F0B1
:1018900080E004C1821B930B0197893C9105C0F342
:1018A000EFCF885C9109E881F98121813281285349
:1018B0003F4F218332832381211196C0248122232B
:1018C00011F021502483E881F9812581222311F030
:1018D000215025838A809B80D40116962C911697DF
:1018E00021111BC08A809B80F4012781211148C0EF
:1018F000EA81FB812381222361F020E030E0A0E037
:10190000B0E0EA81FB8140815181A417B50708F45A
:101910006EC0893C910528F6BBCF08811981F8017A
:1019200024812111DFCFED90FC9060E070E040E079
:1019300050E04E155F05F1F0EC81FD81E60FF71FD9
:101940002081233011F0283081F424813581C28038
:10195000D380D6011196CD90DC9012972C153D05C1
:1019600020F42F5F3F4F248335834F5F5F4F6A5FC3
:101970007F4FDFCFF4012681D80114962C93B2CF8C
:1019800008811981D80115962C912111B1CFE080E1
:10199000F18060E070E040E050E04E155F05F1F04E
:1019A000EC81FD81E60FF71F2081233011F02830F4
:1019B00081F424813581C280D380D6011196CD90E7
:1019C000DC901297C216D30620F4215031092483EB
:1019D00035834F5F5F4F6A5F7F4FDFCFF401278111
:1019E000D80115962C9384CF2150238381CFA90150
:1019F000440F551FEC81FD81E40FF51F60816538B0
:101A000009F047C06181662319F06150618341C0CC
:101A1000A0826C817D81FB01E40FF51F0280F381C0
:101A2000E02DB082EE81FF81E20FF31FD280DD2036
:101A300081F140E050E000E010E0EA81FB8160814C
:101A400071810617170728F5EE81FF81E40FF51F56
:101A50006281D61219C0BA01660F771FEC81FD8131
:101A60004F01860E971EF401E280F380F701F080AB
:101A7000F0FE0AC0F401A082EC81FD81E60FF71FA1
:101A80000280F381E02DB0820F5F1F4F4D5F5F4FEB
:101A9000D4CF11962D5F3F4F34CF8BE0DF91CF91A4
:101AA0001F910F91FF90EF90DF90CF90BF90AF907C
:101AB0009F908F907F906F905F904F903F902F906E
:101AC00008959C016115710509F14F5F37FD06C04E
:101AD000442321F04150220F331FF8CF77FD04C07B
:101AE0004F5F660F771FFACF80E090E0442381F0CC
:101AF00097FD0CC0880F991F41502617370718F023
:101B0000261B370B019676956795F0CF8FEF9FEFE9
:101B10000895CF93DF93FC01892BB9F1248135819E
:101B20002115310591F1468157814115510569F122
:101B3000A081B1811C9290E0A281B38112968C9118
:101B4000981708F5D90189E0989FA00DB11D1124BF
:101B500011961C921197EA0188E0989FC00DD11D43
:101B600011248D8112968C93129713961D921C92BC
:101B7000149715961D921C92169717961D921C92FB
:101B800018979F5FD9CF80E001C08BE0DF91CF91A4
:101B900008952F923F924F925F926F927F928F9211
:101BA0009F92AF92BF92CF92DF92EF92FF920F93EC
:101BB0001F93CF93DF93CDB7DEB76197CDBFDEBF65
:101BC000FC01009709F4DCC2E480F580EA86FB861C
:101BD000EF2809F4D5C2E680F780E886F986EF2879
:101BE00009F4CEC2A281B3814D905C90411451049E
:101BF00009F4C6C28E839F8300E01A82912C16E0FE
:101C0000812EAE81BF811296ED91FC911397828156
:101C1000981608F0B0C26884798428E0929E600C1F
:101C2000711C1124D30111964D915C91129713965A
:101C3000AC907A01EA0CF11CCA0160E08E159F0598
:101C400070F4889EF001899EF00D1124E40DF51DBD
:101C50002081253811F4C70161E00196EFCF849E01
:101C6000F001859EF00D1124EC83FD833497E40D83
:101C7000F51D26E0A29E500111241A0170E0188A79
:101C8000198A2E143F0408F04FC086819781DC0129
:101C900011962D913C91129780859185281B390BC7
:101CA0001216130614F020E030E024163506A9F4CD
:101CB000D3018C918130F9F46F01CA0CDB1CD60181
:101CC0008D919C91DC0111968D919C911297D6017A
:101CD0001296CD90DC90139709C080819181DC0130
:101CE00011968D919C911297C280D3808C199D0979
:101CF0001816190614F080E090E0280F391FD30160
:101D000016968D919C9117972817390740F088896E
:101D100099898217930710F4288B398B71E09FEF14
:101D2000291A390A3696ADCF711101C060E0A9E0D9
:101D30009A9E90011124EA84FB84E20EF31EEE8643
:101D4000FF86D7018C91AE81BF811496ED91FC91F5
:101D50001597B82FB170BD8780FF1EC07F01E20EBE
:101D6000F31ED7011796CD90DC901897C601880F07
:101D7000991F8C0D9D1DA889B9898A0F9B1F969567
:101D8000879596958795D70117968D939C9318976D
:101D9000772361F061E00AC0CF01820F931FE888CA
:101DA000F988DC011796ED92FC921897D301BC914B
:101DB000B983B23008F0D4C1D30114961C91103D00
:101DC00008F0CEC1611105C0E20FF31F1782108623
:101DD000C8C1F301F381FB83E12EE2949FE0E92285
:101DE000EC86AC80BD80A40CB51CF501BA01212C99
:101DF000312C20E030E08B81E82EF12C6A01CE0CF2
:101E0000DF1C6C157D05B0F4A281B38111968D9114
:101E10009C911297A481B5818A1B9B0B18161906F9
:101E20002CF42816390614F41C019B016F5F7F4FB8
:101E30003696E7CF4217530779F59981913009F02B
:101E4000A1C18C9CF0018D9CF00D11243697E40DFE
:101E5000F51DA281B38111966D917C9112978481B9
:101E60009581681B790BEC81FD813696E40DF51D9B
:101E7000A281B38111968D919C9112970480F58176
:101E8000E02D8E1B9F0B97FF02C080E090E086172D
:101E900097070CF47BC112C0829EF001839EF00D67
:101EA00011243697E40DF51DA281B38111966D9131
:101EB0007C91129784819581681B790B90E077FF64
:101EC00002C060E070E0A1E0CA1AD1082C153D05FF
:101ED00081F4B981B13029F5D5011296ED91FC91CB
:101EE0001397C180D28014960D90BC91A02DF6015D
:101EF00014C0F90131968E9ED0018F9EB00D112431
:101F0000A40DB51D1296ED91FC9113970180F281FD
:101F1000E02D14960D90BC91A02DEA1BFB0BF7FF52
:101F200002C0E0E0F0E0BB81B03128F0B4E0AB2EBD
:101F300088E0B82E03C0A12CACE0BA2E913011F489
:101F4000670103C0241B350B69010B2C02C0CC0CAC
:101F5000DD1C0A94E2F76E177F07A8F0C1018E1B03
:101F60009F0B9C012E1B3F0B620F731F4B2D0E947A
:101F7000610D21E030E002C0220F331FBA94E2F776
:101F8000821B930B0CC0CF01861B970BF101E61B44
:101F9000F70BBF01680F791F4B2D0E94610D8C0D4F
:101FA0009D1DFB81F33060F02981213019F44A2D09
:101FB000B70104C0B701615071094A2D0E94610D3B
:101FC000813030E1930710F080E090E1E980E1108A
:101FD00017C01F70A9F028E2129FA00111248417D6
:101FE000950718F0841B950B02C080E090E0440F29
:101FF000551F60E070E1641B750B4CE00E94610DA1
:102000002CE030E0EC842E19310961E070E002C070
:10201000660F771FEA94E2F7FB01319702C09695AD
:1020200087952A95E2F7E817F90708F4CF01FD84B0
:10203000FF20D9F1AE85BF8513964D915C91149721
:102040009C01241B350BB981B130A9F4DB01B69595
:10205000A79537FF0AC0B195A195B1092A173B078B
:102060000CF096C0260F371F06C0A217B3070CF05E
:1020700095C0261B370B21303105C1F02F3F6FEF84
:102080003607A1F037FF09C0319521953109369502
:10209000279531952195310902C036952795240F52
:1020A000351FAF014223532301C0AC01AE85BF856C
:1020B00013968D939C931497F301A581EE85FF856C
:1020C00065817681F3012481CA01861B970B3081DB
:1020D0003130E1F422952F70E1E0F0E002C0EE0F24
:1020E000FF1F2A95E2F79F013695279597FF09C0B4
:1020F0003195219531098217930754F48E0F9F1F54
:1021000005C028173907ACF48E1B9F0B97FF11C031
:10211000919581959109EE85FF85228130E0281700
:10212000390714F080E01AC0EE85FF85A183128282
:102130000BC0EE85FF85218130E02817390794F721
:10214000EE85FF851182A2834617570759F3AE85A6
:10215000BF8515964D935C93169782E0816802C007
:1021600002E080E0EE85FF8580838178EA80E82ABE
:10217000EA82939446CDED91FC91EA80E08213C00F
:102180000BE011C060E070E090E09DCE91E09BCE4E
:102190002F3F6FEF360709F077CF88CF2130310519
:1021A00009F070CF83CF802F6196CDBFDEBFDF9166
:1021B000CF911F910F91FF90EF90DF90CF90BF9044
:1021C000AF909F908F907F906F905F904F903F90D7
:1021D0002F9008958091153990911639A091D53995
:1021E000B091D639ED91FC9111974081518125E054
:1021F000289FB001299F700D112420E030E0841742
:102200009507A8F41496ED91FC911597E20FF31F32
:10221000E60FF71FE0812B5F3F4FE0FD02C0019604
:10222000EECF809315399093163980E0089510927F
:1022300015391092163981E00895BC01E091D53925
:10224000F091D6399C0183E0220F331F8A95E1F784
:10225000A281B381A20FB31F12969C91129713967D
:102260008C9190932A0680932B06A281B381A20FB2
:10227000B31F9C9111968C9190932606809327060C
:1022800095E0969FA001979F500D1124A481B581E0
:10229000A40FB51F13968C9180931A06A481B58163
:1022A000A40FB51F14968C9180931B06A481B58151
:1022B000A40FB51F8C9181FD9C9384819581DC01D5
:1022C000A40FB51F8C918C7169F4A281B381A20F08
:1022D000B31F1696AC91A295AF70B0E0A957B94460
:1022E0008C9101C08FE380931C06A281B381A20F61
:1022F000B31F14968C918B3110F48C5F01C08FE169
:1023000080930506A281B381A20FB31F17968C910B
:1023100080930106A281B381A20FB31F15968C9101
:1023200082958F708093190682819381FC01E20F60
:10233000F31F85818F70806180930206809118065B
:1023400083608093180681E88093000681E0809383
:10235000080608953F924F925F926F927F928F92FC
:102360009F92AF92BF92CF92DF92EF92FF920F9324
:102370001F93CF93DF9380911439882309F448C1C8
:10238000A091D539B091D639C090D739D090D839ED
:1023900000E010E060E070E0E12CF12C80E03324FC
:1023A0003394D1E84D2E88248A94992493946D9087
:1023B0007C901197F30120813181E216F30608F039
:1023C00023C1E601299139916E011496ED91FC919A
:1023D0001597E60FF71F40814C7150E056954795D1
:1023E000569547954115510521F041305105B9F0F9
:1023F00002C11296CD91DC911397C00FD11F4E816F
:102400004F709F81491710F4941B01C090E002C0E7
:10241000369527959A95E2F721833283EDC012967F
:102420004D915C911397400F511FEA010F8002C03C
:10243000369527950A94E2F721833283A380B480EE
:102440002115D2E03D0720F02F5F314091E005C01B
:10245000A401421B530B9A0190E0E3015A80D0E49F
:102460005D1205C036952795992319F009C0992367
:1024700039F04FEFA416B40631F440828EE007C065
:102480007724739401C0712C2A30310590F414968E
:10249000ED91FC911597E60FF71F908197FF308221
:1024A0001496ED91FC911597E60FF71FA382B48265
:1024B000A3C0E501CD2FDD27C295CF709C2FA501CC
:1024C00044275F70652EA501407F552752954295A0
:1024D0004F7045275F7045275A2D5F70A52EC43079
:1024E00030F09370D695C795D695C7959C0F71100F
:1024F0003CC050E8550D523010F456E007C053E090
:1025000005C0951768F49F5F2F5C3109203D3105A8
:10251000C0F706C0CFE06C1649F06394255131092D
:1025200026313105B8F7DFE06D120EC0951720F4A3
:102530009F5FD5E06D2E08C0CFE06C2E05C04F30F8
:1025400049F04F5F2250310923303105C0F74F3039
:1025500009F065C04FE0641681F1639445E05FC007
:10256000992361F091502F5C3109203D3105C0F76E
:1025700005C0662041F06A942551310926313105A4
:10258000C0F761100DC0992321F091505AE0652EDB
:1025900007C0612C05C0442341F04150225031094D
:1025A00023303105C0F7411110C06620E9F16A946B
:1025B0004AE023303105C8F608C059132FC0233034
:1025C000310540F14FE0A42E4FE0943018F0990F00
:1025D000990F9950C0E14C9FA001112456294A2916
:1025E000C92FD0E0DC2FCC27D295D07F4C2B5D2B90
:1025F0004383548301C0FFCFDFEFED1AFD0A6B5F09
:102600007F4F085F1F4FD3CE92E0909314390EC0D6
:1026100083E00CC04FE02FE0A22ED7CF4FE0233055
:10262000310508F073CFD1CF40E0CFCFDF91CF910C
:102630001F910F91FF90EF90DF90CF90BF90AF90E0
:102640009F908F907F906F905F904F903F900895F4
:10265000CF93DF930097E1F1DC01ED91FC91A08134
:10266000B18160E070E040E050E020E030E04A17E7
:102670005B0799F0EC01EA81FB81E60FF71FC0814F
:10268000D1810280F381E02DEC2BFD2B2E2B3F2BF3
:102690004F5F5F4F685F7F4FEACF21153105D1F063
:1026A00080911439811108C02093220630932306AB
:1026B00081E0809314390AC080912206822B809396
:1026C000220680912306832B8093230680E003C09B
:1026D0008BE001C082E0DF91CF910895009731F047
:1026E0008093D7399093D83980E008958BE008958E
:1026F00061157105A1F1009791F120911439222300
:1027000081F1243081F18093D5399093D63960934B
:1027100012397093133910921806DC01ED91FC9177
:102720002281203439F420EC2093180620911806D9
:10273000206205C0203841F42091180628622093B9
:10274000180610921E0613C0213879F4209118063D
:1027500028622093180626E820931E0608C08BE006
:10276000089583E0089581E0089582E0089510922D
:102770000006DC01ED91FC918481803108F080E15C
:102780008093030681E080930B0680930A06809372
:10279000D23810921539109216390E94EA10811120
:1027A0000BC084E0809314398091153990911639CB
:1027B0000E941D1180E0089582E0809314390895ED
:1027C0000097C9F0DC01ED91FC91119720813181D6
:1027D0002617370790F045E0469F9001479F300D40
:1027E00011241496ED91FC911597E20FF31F81E0EF
:1027F000808380E008958BE0089582E00895FC01D5
:10280000892BD1F1A081B1818D919C91119786176F
:102810009707A0F112969C910480F581E02D9034E9
:1028200059F485E0869FD001879FB00D1124AE0F2B
:10283000BF1F84E392E00DC09058923080F485E091
:10284000869FD001879FB00D1124AE0FBF1F87E672
:1028500095E013968D939C93149780E001C082E0DD
:1028600095E0969F9001979F300D1124E20FF31F82
:1028700090819260908308958BE0089582E008959E
:102880001092000640911006509111068091153962
:10289000909116399C01220F331FE091D739F091A6
:1028A000D839E20FF31F4083518301968093153985
:1028B000909316390E94EA10811109C084E0809338
:1028C000143980911539909116390C941D11E091AD
:1028D0001239F091133909945058BB27AA270E9446
:1028E00084140C94D5150E94C71538F00E94CE159B
:1028F00020F039F49F3F19F426F40C94C4150EF41B
:10290000E095E7FB0C94BE15E92F0E94E61558F3FD
:10291000BA17620773078407950720F079F4A6F5C4
:102920000C9408160EF4E0950B2EBA2FA02D0B0177
:10293000B90190010C01CA01A0011124FF27591B04
:1029400099F0593F50F4503E68F11A16F040A22F0A
:10295000232F342F4427585FF3CF4695379527957B
:10296000A795F0405395C9F77EF41F16BA0B620B7A
:10297000730B840BBAF09150A1F0FF0FBB1F661FC1
:10298000771F881FC2F70EC0BA0F621F731F841F04
:1029900048F4879577956795B795F7959E3F08F02A
:1029A000B0CF9395880F08F09927EE0F97958795EC
:1029B00008950E94ED140C94D5150E94CE1558F080
:1029C0000E94C71540F029F45F3F29F00C94BE1512
:1029D00051110C9409160C94C4150E94E61568F365
:1029E0009923B1F3552391F3951B550BBB27AA27C8
:1029F00062177307840738F09F5F5F4F220F331F02
:102A0000441FAA1FA9F335D00E2E3AF0E0E832D0C9
:102A100091505040E695001CCAF72BD0FE2F29D0CC
:102A2000660F771F881FBB1F261737074807AB079E
:102A3000B0E809F0BB0B802DBF01FF2793585F4F13
:102A40003AF09E3F510578F00C94BE150C9409168F
:102A50005F3FE4F3983ED4F3869577956795B795F5
:102A6000F7959F5FC9F7880F911D9695879597F900
:102A70000895E1E0660F771F881FBB1F6217730779
:102A80008407BA0720F0621B730B840BBA0BEE1F8E
:102A900088F7E09508950E9452156894B1110C943E
:102AA000091608950E94EE1588F09F5798F0B92FE7
:102AB0009927B751B0F0E1F0660F771F881F991F73
:102AC0001AF0BA95C9F714C0B13091F00E940816F7
:102AD000B1E008950C940816672F782F8827B85F07
:102AE00039F0B93FCCF3869577956795B395D9F7CB
:102AF0003EF490958095709561957F4F8F4F9F4FD5
:102B00000895E89409C097FB3EF4909580957095E0
:102B100061957F4F8F4F9F4F9923A9F0F92F96E929
:102B2000BB279395F695879577956795B795F1119E
:102B3000F8CFFAF4BB0F11F460FF1BC06F5F7F4F3B
:102B40008F4F9F4F16C0882311F096E911C077234D
:102B500021F09EE8872F762F05C0662371F096E856
:102B6000862F70E060E02AF09A95660F771F881F25
:102B7000DAF7880F9695879597F9089597F99F67E3
:102B800080E870E060E008959FEF80EC08950024F5
:102B90000A941616170618060906089500240A94C2
:102BA00012161306140605060895092E0394000C48
:102BB00011F4882352F0BB0F40F4BF2B11F460FFD7
:102BC00004C06F5F7F4F8F4F9F4F089557FD905800
:102BD000440F551F59F05F3F71F04795880F97FBE1
:102BE000991F61F09F3F79F087950895121613069B
:102BF0001406551FF2CF4695F1DF08C016161706CA
:102C00001806991FF1CF86957105610508940895FE
:102C1000E894BB2766277727CB0197F9089516F02C
:102C20000C94C8160C94C41568940C94BE150E949C
:102C3000EE15A8F39923C1F3AEF3DF93CF931F935F
:102C40000F93FF92C92FDD2788232AF02197660F63
:102C5000771F881FDAF720E030E040E85FEB9FE362
:102C6000883920F0803E38F021968F770E946D14CD
:102C7000ECE7F0E004C00E946D14E9EAF0E00E9485
:102C8000D6168B01BE01EC01FB2E6F5771097595AD
:102C9000771F880B990B0E94831528E132E741E3E7
:102CA0005FE30E946E16AF2D9801AE01FF900F9169
:102CB0001F91CF91DF910E9484140C94D5150E942E
:102CC000C71538F00E94CE1520F0952311F00C9412
:102CD000BE150C94C41511240C9409160E94E61517
:102CE00070F3959FC1F3950F50E0551F629FF0015F
:102CF000729FBB27F00DB11D639FAA27F00DB11D78
:102D0000AA1F649F6627B00DA11D661F829F222700
:102D1000B00DA11D621F739FB00DA11D621F839F87
:102D2000A00D611D221F749F3327A00D611D231F5D
:102D3000849F600D211D822F762F6A2F11249F57AB
:102D400050409AF0F1F088234AF0EE0FFF1FBB1FAE
:102D5000661F771F881F91505040A9F79E3F51056D
:102D600080F00C94BE150C9409165F3FE4F3983E76
:102D7000D4F3869577956795B795F795E7959F5F17
:102D8000C1F7FE2B880F911D9695879597F90895A9
:102D90009F3F31F0915020F4879577956795B795CF
:102DA000880F911D9695879597F90895DF93CF9396
:102DB0001F930F93FF92EF92DF927B018C01689437
:102DC00006C0DA2EEF010E946E16FE01E894A5916E
:102DD0002591359145915591A6F3EF010E948414F8
:102DE000FE019701A801DA9469F7DF90EF90FF9058
:102DF0000F911F91CF91DF910895A0E0B0E0E3E043
:102E0000F7E10C94F01A5C016B017A016115710510
:102E100019F0FB0180839183E114F10429F0C701CB
:102E20000297839708F0C9C0E5012196F50110814A
:102E3000812F90E00E94F217892B11F05E01F4CFF0
:102E40001D3229F42196F501118101E007C01B32E2
:102E500021F4E5012296F501118100E0E114F1046D
:102E6000B1F0F0E1EF16F10429F4B0C010E3E11481
:102E7000F10401F12AE0E216F104B1F180E1E81673
:102E8000F10471F0E8E0EE16F104F1F413C0103330
:102E900041F588818F7D883549F719812296026036
:102EA000F0E1EF2EF12C88248A94982CA82CAFE026
:102EB000BA2E20C078E0E72EF12C88248A94982C32
:102EC000A82CEFE1BE2E16C06FEF7FEFCB0197016C
:102ED0000F2C000C440B550B0E94C21A49015A01D9
:102EE00009C08AE0E82EF12C69E9862E982CA82CDE
:102EF00069E1B62E40E060E070E0CB0127010F2CC5
:102F0000000C66087708FE0150ED352E310E29E0E1
:102F1000231570F42FEB210F2A3118F439EC332EDE
:102F200006C02FE9210F2A3130F529EA322E310E61
:102F3000232D30E02E153F05F4F44F3FC9F08616DF
:102F40009706A806B90688F0A30192010E94B21A5A
:102F5000232D30E040E050E0620F731F841F951F67
:102F6000621773078407950710F44FEF01C041E023
:102F700021961081C8CFC114D10451F0442311F01F
:102F8000219703C001FF04C02297F601C083D183BB
:102F900000FF07C090958095709561957F4F8F4F8A
:102FA0009F4F4F3F79F482E290E08093DF39909316
:102FB000E0393FEF2FEF9FEF0DC040E030E020E021
:102FC00090E008C0462F372F282F04C0103309F097
:102FD00067CF5FCF642F732F822FCDB7DEB7E1E1CC
:102FE0000C94091B91110C94FF19803219F089502F
:102FF0008550C8F70895FB01DC0104C08D91019054
:10300000801921F441505040C8F7881B990B08954E
:10301000A0E0B0E0EEE0F8E10C94FF1AAE014B5FE7
:103020005F4FFA0161917191AF018091DB3990910D
:10303000DC390E941E18E2E00C94181BABE0B0E0F3
:10304000E4E2F8E10C94EF1A6C017B018A01FC01C7
:1030500016821782838181FFCCC1CE0101963C018B
:10306000F6019381F70193FD859193FF81917F0193
:10307000882309F4BAC1853239F493FD859193FF11
:1030800081917F01853229F4B60190E00E94181ADF
:10309000E7CF912C212C312CFFE1F315D8F08B32A6
:1030A00079F038F4803279F08332A1F4232D206155
:1030B0001DC08D3261F0803369F4232D216016C06C
:1030C000832D8260382EE32DE4603E2E2AC0F32D3E
:1030D000F8601DC037FC2DC020ED280F2A3040F0CD
:1030E0008E32B9F436FC81C1232D2064322E19C0F2
:1030F00036FE06C08AE0989E200D1124922E11C043
:10310000EAE02E9E200D1124222EF32DF0623F2E98
:1031100008C08C3621F4832D8068382E02C0883692
:1031200041F4F70193FD859193FF81917F01811116
:10313000B3CF982F9F7D9554933028F40C5F1F4F89
:103140009FE399830DC0833631F0833771F0833567
:1031500009F059C021C0F801808189830E5F1F4F9B
:1031600088248394912C530113C02801F2E04F0E60
:10317000511CF801A080B18036FE03C0692D70E0BB
:1031800002C06FEF7FEFC5010E940D1A4C01820152
:10319000F32DFF773F2E16C0280122E0420E511C6E
:1031A000F801A080B18036FE03C0692D70E002C036
:1031B0006FEF7FEFC5010E94021A4C01F32DF068FA
:1031C0003F2E820133FC1BC0822D90E088169906A9
:1031D000B0F4B60180E290E00E94181A2A94F4CF6D
:1031E000F50137FC859137FE81915F01B60190E0D2
:1031F0000E94181A21102A9421E0821A9108811441
:10320000910471F7E8C0843611F0893641F5F80170
:1032100037FE07C060817181828193810C5F1F4FEF
:1032200008C060817181072E000C880B990B0E5F1E
:103230001F4FF32DFF763F2E97FF09C09095809585
:10324000709561957F4F8F4F9F4FF0683F2E2AE01A
:1032500030E0A3010E94541A882E861845C0853795
:1032600031F4232D2F7EB22E2AE030E025C0932D9D
:10327000997FB92E8F36C1F018F4883579F0B5C032
:10328000803719F0883721F0B0C0E92FE061BE2EF9
:10329000B4FE0DC0FB2DF460BF2E09C034FE0AC081
:1032A000292F2660B22E06C028E030E005C020E1BC
:1032B00030E002C020E132E0F801B7FE07C06081D3
:1032C0007181828193810C5F1F4F06C06081718183
:1032D00080E090E00E5F1F4FA3010E94541A882ED9
:1032E0008618FB2DFF773F2E36FE0DC0232D2E7F37
:1032F000A22E891458F434FE0BC032FC09C0832D71
:103300008E7EA82E05C0B82CA32C03C0B82C01C0FB
:10331000B92CA4FE0FC0FE01E80DF11D80818033A1
:1033200021F49A2D997EA92E09C0A2FE06C0B3945D
:10333000B39404C08A2D867809F0B394A3FC11C01D
:10334000A0FE06C0B21488F4280C922C9B180EC064
:10335000B21460F4B60180E290E00E94181AB394AF
:10336000F7CFB21418F42B1802C0982C212CA4FE0D
:1033700010C0B60180E390E00E94181AA2FE17C0A8
:10338000A1FC03C088E790E002C088E590E0B601A8
:103390000CC08A2D867859F0A1FE02C08BE201C0D4
:1033A00080E2A7FC8DE2B60190E00E94181A891411
:1033B00038F4B60180E390E00E94181A9A94F7CF8F
:1033C0008A94F301E80DF11D8081B60190E00E941E
:1033D000181A8110F5CF222009F442CEB60180E2FE
:1033E00090E00E94181A2A94F6CFF6018681978100
:1033F00002C08FEF9FEF2B96E2E10C94081B9927F8
:1034000088270895FC010590615070400110D8F79D
:10341000809590958E0F9F1F0895FC01615070401C
:1034200001900110D8F7809590958E0F9F1F0895F9
:103430000F931F93CF93DF93FB01238121FD03C0E3
:103440008FEF9FEF2CC022FF16C046815781248149
:1034500035814217530744F4A081B1819D012F5F4C
:103460003F4F208331838C93268137812F5F3F4FDD
:103470002683378314C08B01EC01FB010084F185A6
:10348000E02D0995892BE1F6D80116968D919C9136
:103490001797019616968D939C931797CE01DF91FF
:1034A000CF911F910F910895FA01AA27283051F169
:1034B000203181F1E8946F936E7F6E5F7F4F8F4F65
:1034C0009F4FAF4FB1E03ED0B4E03CD0670F781FC4
:1034D000891F9A1FA11D680F791F8A1F911DA11DA9
:1034E0006A0F711D811D911DA11D20D009F46894E2
:1034F0003F912AE0269F11243019305D3193DEF68A
:10350000CF010895462F4770405D4193B3E00FD03F
:10351000C9F7F6CF462F4F70405D4A3318F0495D2A
:1035200031FD4052419302D0A9F7EACFB4E0A6950D
:103530009795879577956795BA95C9F7009761052F
:10354000710508959B01AC010A2E06945795479585
:1035500037952795BA95C9F7620F731F841F951F7A
:10356000A01D0895DB018F939F930E94E41ABF91E1
:10357000AF91A29F800D911DA39F900DB29F900DC2
:1035800011240895A1E21A2EAA1BBB1BFD010DC038
:10359000AA1FBB1FEE1FFF1FA217B307E407F50703
:1035A00020F0A21BB30BE40BF50B661F771F881FDF
:1035B000991F1A9469F760957095809590959B0175
:1035C000AC01BD01CF0108950E94201BA59F900D65
:1035D000B49F900DA49F800D911D112408952F92EA
:1035E0003F924F925F926F927F928F929F92AF9293
:1035F000BF92CF92DF92EF92FF920F931F93CF93E0
:10360000DF93CDB7DEB7CA1BDB0BCDBFDEBF09949E
:103610002A88398848885F846E847D848C849B8462
:10362000AA84B984C884DF80EE80FD800C811B8170
:10363000AA81B981CE0FD11DCDBFDEBFED010895A6
:10364000A29FB001B39FC001A39F700D811D1124E3
:10365000911DB29F700D811D1124911D0895F89444
:02366000FFCF9A
:103662008000C000E000F000F800FC00FE00FF0057
:10367200425F4F6E3A307800425F4F6E3A307825A3
:0B36820033780D0A003F1C0B0503010C
:10368D008000C000E000F000F800FC00FE00FF002C
:10369D008000400020001000E73828388C39203891
:1036AD00000400048A081400A539015D394B38A5C2
:1036BD0039333814010014010014010014010014F1
:1036CD000101140101140101140101080004000598
:1036DD0000140514019B385B386439200008000084
:1036ED00030004100008000003000402000800009D
:1036FD000300040100080000030004200004000082
:10370D000300041000040000030004020004000084
:10371D000300040100040000030004080040300011
:10372D008D069D06B106FF0635079207AE06BC064F
:10373D00AB069506DF06E606ED06F8067D06BF0626
:10374D00CF07F10700000002000000002209000071
:04375D000000010067
:00000001FF
